:10000000000002201104000099040000990400007F
:100010009904000099040000990400000000000009
:10002000000000000000000000000000C5F5010015
:10003000990400000000000047F60100AFF601003F
:10004000AFF60100AFF60100AFF60100AFF6010018
:10005000AFF60100AFF60100AFF60100AFF6010008
:10006000AFF60100AFF60100AFF60100AFF60100F8
:10007000AFF60100AFF60100AFF60100AFF60100E8
:10008000AFF60100AFF60100AFF60100AFF60100D8
:10009000AFF60100AFF60100AFF60100AFF60100C8
:1000A000AFF60100AFF60100AFF60100AFF60100B8
:1000B000AFF60100AFF60100AFF60100AFF60100A8
:1000C000AFF60100AFF60100AFF60100AFF6010098
:1000D000AFF60100AFF60100AFF60100AFF6010088
:1000E000AFF60100AFF60100AFF60100AFF6010078
:1000F000AFF60100AFF60100AFF60100AFF6010068
:10010000AFF60100AFF60100AFF60100AFF6010057
:10011000AFF60100AFF60100AFF60100AFF6010047
:10012000AFF60100AFF60100AFF60100AFF6010037
:10013000AFF60100AFF60100AFF60100AFF6010027
:10014000AFF60100AFF60100AFF60100AFF6010017
:10015000AFF60100AFF60100AFF60100AFF6010007
:10016000AFF60100AFF60100AFF60100AFF60100F7
:10017000AFF60100AFF60100AFF60100AFF60100E7
:10018000AFF60100AFF60100AFF60100AFF60100D7
:08019000AFF60100AFF601001B
:10040000FFFFFFFFFFFFFFFFFFFFFFFFFEFFFFFFFD
:100410000D4A0E480E494FF008033BB140F8042B3B
:1004200041F8042BA3F10103FFF7F7BFEFF30880B6
:1004300080F30988EFF3148040F0020080F3148801
:10044000BFF36F8F00F006F8FFFFFFFF80E100E0D1
:1004500080E200E072B614F07FFF62B609490A4AF2
:100460000A4B9A42BEBF51F8040B42F8040BF8E75E
:100470000749084A00209142BCBF41F8040BFAE743
:1004800003F05EFFE8F701000000FF1F4400FF1FBC
:100490004400FF1F90FFFF1FFFF7FEBF81F00041E8
:1004A00002E000BF83F0004330B54FEA41044FEA59
:1004B000430594EA050F08BF90EA020F1FBF54EAF4
:1004C000000C55EA020C7FEA645C7FEA655C00F090
:1004D000E2804FEA5454D4EB5555B8BF6D420CDD61
:1004E0002C4480EA020281EA030382EA000083EAE4
:1004F000010180EA020281EA0303362D88BF30BD84
:1005000011F0004F4FEA01314FF4801C4CEA1131D9
:1005100002D0404261EB410113F0004F4FEA033338
:100520004CEA133302D0524263EB430394EA050FC3
:1005300000F0A780A4F10104D5F1200E0DDB02FA32
:100540000EFC22FA05F2801841F1000103FA0EF2C6
:10055000801843FA05F359410EE0A5F120050EF18C
:10056000200E012A03FA0EFC28BF4CF0020C43FABD
:1005700005F3C01851EBE37101F0004507D54FF0CA
:10058000000EDCF1000C7EEB00006EEB0101B1F51A
:10059000801F1BD3B1F5001F0CD349085FEA300060
:1005A0004FEA3C0C04F101044FEA445212F5800F6B
:1005B00080F09A80BCF1004F08BF5FEA500C50F108
:1005C000000041EB045141EA050130BD5FEA4C0CEB
:1005D000404141EB010111F4801FA4F10104E9D174
:1005E00091F0000F04BF01460020B1FA81F308BF6B
:1005F0002033A3F10B03B3F120020CDA0C3208DD37
:1006000002F1140CC2F10C0201FA0CF021FA02F111
:100610000CE002F11402D8BFC2F1200C01FA02F181
:1006200020FA0CFCDCBF41EA0C019040E41AA2BFA6
:1006300001EB0451294330BD6FEA04041F3C1CDA6E
:100640000C340EDC04F11404C4F1200220FA04F08E
:1006500001FA02F340EA030021FA04F345EA030138
:1006600030BDC4F10C04C4F1200220FA02F001FAFA
:1006700004F340EA0300294630BD21FA04F029467C
:1006800030BD94F0000F83F4801306BF81F4801115
:100690000134013D4EE77FEA645C18BF7FEA655C88
:1006A00029D094EA050F08BF90EA020F05D054EA5A
:1006B000000C04BF1946104630BD91EA030F1EBF5F
:1006C0000021002030BD5FEA545C05D14000494163
:1006D00028BF41F0004130BD14F580043CBF01F556
:1006E000801130BD01F0004545F0FE4141F470013C
:1006F0004FF0000030BD7FEA645C1ABF1946104617
:100700007FEA655C1CBF0B46024650EA013406BF17
:1007100052EA033591EA030F41F4002130BD00BFD6
:1007200090F0000F04BF0021704730B54FF4806493
:1007300004F132044FF000054FF0000150E700BF14
:1007400090F0000F04BF0021704730B54FF4806473
:1007500004F1320410F0004548BF40424FF0000160
:100760003EE700BF42004FEAE2014FEA31014FEAA3
:1007700002701FBF12F07F4393F07F4F81F06051F2
:10078000704792F0000F14BF93F07F4F704730B561
:100790004FF4607401F0004521F0004120E700BFF4
:1007A00050EA010208BF704730B54FF000050AE07B
:1007B00050EA010208BF704730B511F0004502D57C
:1007C000404261EB41014FF4806404F132045FEA7E
:1007D000915C3FF4DCAE4FF003025FEADC0C18BF23
:1007E00003325FEADC0C18BF033202EBDC02C2F119
:1007F000200300FA03FC20FA02F001FA03FE40EAAB
:100800000E0021FA02F11444C1E600BF70B54FF0AA
:10081000FF0C4CF4E06C1CEA11541DBF1CEA13558C
:1008200094EA0C0F95EA0C0F00F0DEF82C4481EAF4
:10083000030621EA4C5123EA4C5350EA013518BF14
:1008400052EA033541F4801143F4801338D0A0FB01
:1008500002CE4FF00005E1FB02E506F00042E0FBAE
:1008600003E54FF00006E1FB03569CF0000F18BFB4
:100870004EF0010EA4F1FF04B6F5007F64F540745C
:1008800004D25FEA4E0E6D4146EB060642EAC621EF
:1008900041EA55514FEAC52040EA5E504FEACE2E5C
:1008A000B4F1FD0C88BFBCF5E06F1ED8BEF1004F5F
:1008B00008BF5FEA500E50F1000041EB045170BDDB
:1008C00006F0004646EA010140EA020081EA03011F
:1008D000B4EB5C04C2BFD4EB0C0541EA045170BD1B
:1008E00041F480114FF0000E013C00F3AB8014F195
:1008F000360FDEBF002001F0004170BDC4F10004DE
:10090000203C35DA0C341BDC04F11404C4F120055E
:1009100000FA05F320FA04F001FA05F240EA0200B9
:1009200001F0004221F0004110EBD37021FA04F6EF
:1009300042EB06015EEA430E08BF20EAD37070BDA9
:10094000C4F10C04C4F1200500FA04F320FA05F008
:1009500001FA04F240EA020001F0004110EBD3700A
:1009600041F100015EEA430E08BF20EAD37070BD7A
:10097000C4F1200500FA05F24EEA020E20FA04F353
:1009800001FA05F243EA020321FA04F001F0004102
:1009900021FA04F220EA020000EBD3705EEA430E73
:1009A00008BF20EAD37070BD94F0000F0FD101F0A2
:1009B0000046400041EB010111F4801F08BF013CDB
:1009C000F7D041EA060195F0000F18BF704703F019
:1009D0000046520043EB030313F4801F08BF013DA0
:1009E000F7D043EA0603704794EA0C0F0CEA13555C
:1009F00018BF95EA0C0F0CD050EA410618BF52EA16
:100A00004306D1D181EA030101F000414FF000001B
:100A100070BD50EA410606BF1046194652EA430629
:100A200019D094EA0C0F02D150EA013613D195EA9D
:100A30000C0F05D152EA03361CBF104619460AD1E5
:100A400081EA030101F0004141F0FE4141F47001EF
:100A50004FF0000070BD41F0FE4141F4780170BDDF
:100A600070B54FF0FF0C4CF4E06C1CEA11541DBF44
:100A70001CEA135594EA0C0F95EA0C0F00F0A7F846
:100A8000A4EB050481EA030E52EA03354FEA013173
:100A900000F088804FEA03334FF0805545EA131386
:100AA00043EA12634FEA022245EA111545EA10654E
:100AB0004FEA00260EF000419D4208BF964244F1E5
:100AC000FD0404F5407402D25B084FEA3202B61A04
:100AD00065EB03055B084FEA32024FF480104FF4D8
:100AE000002CB6EB020E75EB030E22BFB61A75464C
:100AF00040EA0C005B084FEA3202B6EB020E75EBDF
:100B0000030E22BFB61A754640EA5C005B084FEA46
:100B10003202B6EB020E75EB030E22BFB61A754613
:100B200040EA9C005B084FEA3202B6EB020E75EB1E
:100B3000030E22BFB61A754640EADC0055EA060EDF
:100B400018D04FEA051545EA16754FEA06164FEA22
:100B5000C30343EA52734FEAC2025FEA1C1CC0D1CE
:100B600011F4801F0BD141EA00014FF000004FF05B
:100B7000004CB6E711F4801F04BF01430020B4F11C
:100B8000FD0C88BFBCF5E06F3FF6AFAEB5EB030CD4
:100B900004BFB6EB020C5FEA500C50F1000041EBD1
:100BA000045170BD0EF0004E4EEA113114EB5C049E
:100BB000C2BFD4EB0C0541EA045170BD41F4801171
:100BC0004FF0000E013C90E645EA060E8DE60CEA79
:100BD000135594EA0C0F08BF95EA0C0F3FF43BAF96
:100BE00094EA0C0F0AD150EA01347FF434AF95EA4D
:100BF0000C0F7FF425AF104619462CE795EA0C0F31
:100C000006D152EA03353FF4FDAE1046194622E7FD
:100C100050EA410618BF52EA43067FF4C5AE50EAD7
:100C200041047FF40DAF52EA43057FF4EBAE12E7C7
:100C30004FF0FF3C06E000BF4FF0010C02E000BFA8
:100C40004FF0010C4DF804CD4FEA410C7FEA6C5C8B
:100C50004FEA430C18BF7FEA6C5C1BD001B050EA2E
:100C6000410C0CBF52EA430C91EA030F02BF90EA19
:100C7000020F0020704710F1000F91EA030F58BFD8
:100C8000994208BF90422CBFD8176FEAE37040F03A
:100C9000010070474FEA410C7FEA6C5C02D150EAD8
:100CA000013C07D14FEA430C7FEA6C5CD6D152EA93
:100CB000033CD3D05DF8040B704700BF8446104658
:100CC00062468C461946634600E000BF01B5FFF757
:100CD000B7FF002848BF10F1000F01BD4DF808ED27
:100CE000FFF7F4FF0CBF012000205DF808FB00BFF8
:100CF0004DF808EDFFF7EAFF34BF012000205DF852
:100D000008FB00BF4DF808EDFFF7E0FF94BF01209E
:100D100000205DF808FB00BF4DF808EDFFF7CEFF9F
:100D200094BF012000205DF808FB00BF4DF808EDDE
:100D3000FFF7C4FF34BF012000205DF808FB00BFAF
:100D40004A0011D212F5001211D20DD56FF478734A
:100D5000B3EB62520ED44FEAC12343F0004343EA9F
:100D6000505323FA02F070474FF00000704750EAEA
:100D7000013002D14FF0FF3070474FF00000704754
:100D80004BB942B9002908BF002802D04FF0FF310B
:100D9000084600F05DB882B0EC462DE9005000F046
:100DA0003FF8DDF804E002B00CBC704770B50022DB
:100DB0000D4B04460D46FFF729FDFFF7C1FF064620
:100DC000FFF7AEFC0022094BFFF720FD02460B4661
:100DD00020462946FFF766FBFFF7B2FF002242EAF2
:100DE00000042046314670BD0000F03D0000F04197
:100DF0002DE97043069E14461D468046894600F044
:100E000029F804FB01F300FB0533A4FB00451D4456
:100E1000B8EB040469EB0505C6E90045BDE870833D
:100E20002DE97043069E1446804689461D4600F013
:100E30005DF900FB05F504FB0153A0FB04451D44CF
:100E4000B8EB040469EB0505C6E90045BDE870830D
:100E5000704700BF00292DE9F00FC0F29F800024E9
:100E6000002BC0F29680154606460F46002B3ED159
:100E70008A4257D9B2FA82F34BB1C3F1200201FA88
:100E800003F720FA02F29D40174300FA03F6290CFB
:100E9000B7FBF1F2330C01FB127CA8B243EA0C471A
:100EA00000FB02F3BB4209D97F1902F1FF3C80F03D
:100EB0000181BB4240F2FE80023A2F44FF1AB7FB89
:100EC000F1F3B6B201FB137146EA014100FB03F0F6
:100ED000884208D9491903F1FF3780F0ED80884234
:100EE00040F2EA80023B43EA0242002303E08B42E5
:100EF0000AD900231A461046194614B1404261EB44
:100F00004101BDE8F00F7047B3FA83F8B8F1000F64
:100F100040F084808B4202D3824200F2DE800023C4
:100F20000122E8E712B90123B3FBF2F5B5FA85F225
:100F3000002A39D17F1B280C1FFA85FC0123B7FB3F
:100F4000F0F1320C00FB117742EA07470CFB01F28B
:100F5000BA4207D97F1901F1FF3802D2BA4200F232
:100F6000C1804146BF1AB7FBF0F2B6B200FB127067
:100F700046EA00400CFB02FC844507D9401902F107
:100F8000FF3702D2844500F2AB803A4642EA014282
:100F9000B1E7E443524263EB430364E7404261EB51
:100FA00041014FF0FF345BE79540C2F1200327FA7F
:100FB00003F1280C26FA03F39740B1FBF0F81F4326
:100FC0003B0C00FB18111FFA85FC43EA01410CFBA6
:100FD00008F38B4206FA02F608D9491908F1FF32E4
:100FE00079D28B4277D9A8F102082944C91AB1FBFA
:100FF000F0F3BFB200FB131147EA01470CFB03F209
:10100000BA4207D97F1903F1FF3160D2BA425ED9E3
:10101000023B2F44BF1A43EA084390E7C8F120027D
:1010200003FA08FC25FA02F343EA0C0C4FEA1C49C8
:1010300021FA02F301FA08F720FA02F2B3FBF9F100
:10104000174309FB11333A0C1FFA8CFB42EA0343A6
:101050000BFB01FA9A4505FA08F008D913EB0C03CB
:1010600001F1FF3235D29A4533D902396344CAEBD4
:101070000303B3FBF9F209FB1233BFB247EA03479C
:101080000BFB02F9B94508D917EB0C0702F1FF3346
:101090001BD2B94519D9023A674442EA0145A5FB7A
:1010A0000001C9EB07078F424FF000030AD305D0B8
:1010B0002A4620E7624601E73B4614E706FA08F6AF
:1010C0008642F5D26A1E002315E71A46E5E70B466D
:1010D000A0E71146CBE7904688E7434642460AE739
:1010E000023A53E702392F443CE700BF2DE9F00FE5
:1010F000144605460E46002B43D18A4253D9B2FA14
:1011000082F757B1C7F1200620FA06F601FA07F375
:1011100002FA07F41E4300FA07F5210CB6FBF1F2C0
:101120002B0C01FB1267A0B243EA074600FB02F357
:10113000B34209D9361902F1FF3780F0F680B34285
:1011400040F2F380023A2644F61AB6FBF1F3ADB250
:1011500001FB136145EA014100FB03F0884208D915
:10116000091903F1FF3680F0E280884240F2DF8007
:10117000023B43EA0242002310461946BDE8F00F45
:1011800070478B424AD8B3FA83F6002E4DD18B427A
:1011900002D3824200F2D680002301221046194673
:1011A000BDE8F00F704712B90124B4FBF2F4B4FAB1
:1011B00084F2002A7CD1091B260CA7B20123B1FBC3
:1011C000F6F02A0C06FB101142EA014107FB00F27F
:1011D0008A4207D9091900F1FF3C02D28A4200F283
:1011E000C3806046891AB1FBF6F2ADB206FB12115C
:1011F00045EA014507FB02F7AF4208D92C1902F175
:10120000FF3180F09680A74240F29380023A42EA92
:10121000004210461946BDE8F00F704700231A46F9
:1012200010461946BDE8F00F7047C6F1200522FAB6
:1012300005F4B3401C434FEA144821FA05F301FAC0
:1012400006F720FA05F5B3FBF8FC2F4308FB1C3327
:101250003D0C1FFA84FA45EA03430AFB0CF9994551
:1012600002FA06FB04D91B190CF1FF326DD3944628
:10127000C9EB0303B3FBF8F508FB1533BFB247EA2C
:1012800003470AFB05F8B84504D93F1905F1FF33B8
:1012900061D31D4645EA0C4CACFB0B23C8EB07079A
:1012A0009F424FF0000549D345D062462B4663E785
:1012B0009440C2F1200321FA03FC260C20FA03F328
:1012C00001FA02F5BCFBF6F843EA05010B0C06FB3C
:1012D00018CCA7B243EA0C4C07FB08F3634500FAAD
:1012E00002F509D91CEB040C08F1FF323AD2634530
:1012F00038D9A8F10208A444C3EB0C0CBCFBF6F3EC
:1013000089B206FB13CC41EA0C4107FB03F28A4287
:1013100007D9091903F1FF3022D28A4220D9023BB2
:101320002144891A43EA084349E73A460CE7334621
:101330001FE70A466BE7B0409042B6D20CF1FF328D
:10134000002319E73346324616E799458FD9ACF1A9
:10135000020C23448CE7B8459BD9023D274499E70A
:101360000346DEE79046C7E7023821443AE700BF6C
:1013700080B483B000AF074B1B687B607B68DB6B7E
:101380003B603B6883F308880C37BD465DF8047BFF
:10139000704700BF4000FF1FB0B483B000AF0346EA
:1013A0000A467B603B601C46032A40F2C480194613
:1013B00001F00101002907D07B607B68591C79602E
:1013C000002119707B68013A194601F002010029D9
:1013D00007D03B603B68991C3960002119803B684D
:1013E000023A1C46950940E023461C1D0021196065
:1013F00023461C1D0021196023461C1D0021196075
:1014000023461C1D0021196023461C1D0021196064
:1014100023461C1D0021196023461C1D0021196054
:1014200023461C1D0021196023461C1D0021196044
:1014300023461C1D0021196023461C1D0021196034
:1014400023461C1D0021196023461C1D0021196024
:1014500023461C1D0021196023461C1D0021196014
:1014600023461C1D00211960013D002DBCD19308AD
:1014700003F00F03013B0E2B5CD801A151F823F0C0
:101480002D150000251500001D1500001515000084
:101490000D15000005150000FD140000F5140000F6
:1014A000ED140000E5140000DD140000D514000068
:1014B000CD140000C5140000BD14000023461C1DFF
:1014C0000021196023461C1D0021196023461C1DA4
:1014D0000021196023461C1D0021196023461C1D94
:1014E0000021196023461C1D0021196023461C1D84
:1014F0000021196023461C1D0021196023461C1D74
:101500000021196023461C1D0021196023461C1D63
:101510000021196023461C1D0021196023461C1D53
:101520000021196023461C1D0021196023461C1D43
:1015300000211960234602F00201002906D03B6019
:101540003B68991C3960002119803B6802F0010258
:10155000002A01D000221A700C37BD46B0BC70477B
:1015600080B584B000AF786039607868396814F06D
:1015700049FAF860FB68002B01D1FFF7F9FEFB6820
:1015800018461037BD4680BDF0B484B000AFF86097
:10159000B9607A60FB68D3E90001BB68D3E9002336
:1015A000121843EB01037968C1E90023FB689D68C9
:1015B000BB689C680D4B1B68D3F85461331BAB426E
:1015C0000DD87B68D3E90023013243F10003796829
:1015D000C1E90023A31B5A197B689A6002E02A190B
:1015E0007B689A601037BD46F0BC70474000FF1F13
:1015F000B0B485B000AF7860124B1B68FB60FB682D
:10160000D3F854417B689B68A34216D37B689B68E0
:10161000B3FBF4F57B68D3E900012A464FF00003E1
:10162000121843EB01037968C1E900237B689A68CB
:1016300004FB05F3D21A7B689A601437BD46B0BC30
:10164000704700BF4000FF1F80B487B000AF254B3C
:101650001B68FB60FB6803F5B073BB60BB68DB68AD
:101660007B617B69072B05D907237B61BB68072258
:10167000DA6007E07B69002B04D101237B61BB6842
:101680000122DA607B699BB25B019BB2DBB29AB24A
:10169000FB68DA8200233B6109E0134A3B6913448B
:1016A00003F54073C0221A703B6901333B613B690B
:1016B000EF2BF2D90D4B7B6000233B6109E03B69C6
:1016C0009B007A6813444FF0FF321A603B69013384
:1016D0003B613B69072BF2D91C37BD465DF8047BA3
:1016E000704700BF4000FF1F00E100E080E100E024
:1016F00080B485B000AF264B1B687B607B680022FE
:101700001A627B68D3F8D43002333B60214BFB6014
:101710003B68BB602CE0FB68FA681A60FB68FA68FB
:101720005A60BB689AB2FB68DA817B68D3F86C2197
:10173000BB681344062B0ED87B68D3F86C319AB281
:10174000BB689BB213449BB25B019BB2DBB29AB203
:10175000FB689A8102E0FB68C0229A817B681A6A62
:10176000FB689A60FB6803F11002FA607A68136202
:10177000BB685A1EBA60002BCDD17B681A6A7B68A1
:101780005A62002318461437BD465DF8047B704743
:101790004000FF1F8006FF1F80B588B000AFF860D3
:1017A000B9607A603B600123FB617B68013BBA68EA
:1017B000134423F00F03BB61BB69643B7B61FB688F
:1017C000BA691A61BB680F3323F00F031A46FB682E
:1017D0009A61FB687A695A6178696421FFF7DCFDD8
:1017E000104A7B691A647B69FA6ADA623B685B6853
:1017F00043F001027B695A647B694FF080729A64FE
:101800007B69FA6A9A657B6900221A607B69BA6A09
:101810005A607B696FF002029A62FB6918462037B2
:10182000BD4680BD9168010080B483B000AF786090
:101830000C37BD465DF8047B704700BF80B483B0B1
:1018400000AF03463960FB7197F90730002B0BDAC4
:101850000D49FB7903F00F03043B3A68D2B2120141
:10186000D2B20B441A7609E0084997F907303A6872
:10187000D2B21201D2B20B4483F800230C37BD461A
:101880005DF8047B704700BF00ED00E000E100E080
:1018900090B583B000AF1A4B1C684FF4005014F0A1
:1018A000CDFB0F206521FFF75BFE78607B68002B86
:1018B00001D07B6820E00F2015F0BEFB0F201149FE
:1018C000002214F043F80346002B01D1262313E035
:1018D00000F01EF80A4B1C680B4BC4F85031C823AB
:1018E000C4F84C31D4F85031184615F0C9FB0748FC
:1018F000002115F0B1FB002318460C37BD4690BD02
:101900004000FF1F41190000E0930400551900003A
:1019100080B500AF084B00221A60074B00229A6086
:10192000054B064A5A604FF0FF300021FFF786FF53
:10193000014B07221A6080BD10E000E0BF270900BC
:1019400080B582B000AF786015F0B8FA0837BD46B0
:1019500080BD00BF80B487B000AF786000233B61DA
:10196000134B5B6823F07F430133FB60104B9B6894
:1019700023F07F437B610F4B5B6803F08063002B98
:1019800006D00B4B9B6823F07F437B61FB683B6178
:101990007B69002B01D1FB687B61FA687B69D21AF5
:1019A0003B69134418461C37BD465DF8047B7047FD
:1019B00010E000E000ED00E080B500AF0220002163
:1019C0000022002312F0A0FB4FF48A7001210022B4
:1019D00013F0DAFA4FF489700121002213F0D4FADF
:1019E0000A2006F0CBF84FF48970012113F028FB90
:1019F000014806F0C3F880BD80841E0080B586B023
:101A000000AF274A07F110031068186092889A8087
:101A1000244A07F10C0310681860234A07F10803F1
:101A200010681860214A3B1D10681860204A3B4628
:101A3000106818601F4BFA68DA601E4BBA681A61AA
:101A40001C4B7A685A611B4B043307F1100292E871
:101A50000300186004331980164B3A689A61154BDD
:101A600000221A77134B01225A77124B0022DA8395
:101A7000104B002283F820200E4B01229A720D4B4E
:101A80000022DA7240F213100021002213F07CFAD7
:101A900040F213100A2113F02BFB1837BD4680BD0E
:101AA0005C75010064750100687501006C750100CA
:101AB000707501007C0EFF1F80B5ADF5FD4D8CB03B
:101AC00002AF07F12803243B1860AD48002114F051
:101AD00071F8002307F5FD4000F11C0003600623A8
:101AE00007F5FD4101F11B010B704FF4417000211E
:101AF0000CF09EFB04204FF4E13112F089F8022033
:101B00004FF4165112F084F801209E4912F080F82B
:101B100040F205200121012213F036FA40F20D2097
:101B20000121012213F030FA4FF4817001210122CA
:101B300013F02AFA4FF4FA6006F020F8FFF73CFFA2
:101B4000914805F0FBFFFFF759FF03F057FE002017
:101B500001210022002312F0D7FA0CF087FB034684
:101B600007F5FD4202F11A02137007F5FD4C0CF166
:101B70001A0C9CF80030002B03D1844805F0DEFFDE
:101B800002E0834805F0DAFF002082490CF06AFD8C
:101B90000CF0C8FE034607F5FD4000F11A00037083
:101BA00007F5FD4101F11A010B78002B03D17A48AA
:101BB00005F0C4FF02E0794805F0C0FF07F5BD530A
:101BC00003F10803303B07F5FD4202F120021360E8
:101BD000734B07F5FD4C0CF11C0CCCF800300023C6
:101BE00007F5FD4000F126000380002307F5FD41C5
:101BF00001F124010B80A5E007F5FD4303F1260365
:101C00001A8867491346DB009B1A9B000B4407F5B3
:101C1000FD4C0CF1200CDCF800205A6007F5FD406B
:101C200000F1260002885E491346DB009B1A9B00E8
:101C30000B4400225A7007F5FD4101F126010A8884
:101C400057491346DB009B1A9B000B44083340F2B4
:101C50004C421A6007F5FD4303F126031A885049E8
:101C60001346DB009B1A9B000B44083300225A608A
:101C700007F5FD4C0CF1200CDCF8003003F24C436E
:101C800007F5FD4000F12000036007F5FD4101F17B
:101C900026010B88013307F5FD4202F1260213806D
:101CA00007F5FD4C0CF1260CBCF8003007F5FD40A3
:101CB00000F11B00027893FBF2F102FB01F29B1A88
:101CC000002B3FD107F5FD4101F124010B88DA001B
:101CD000344BD11807F5FD4202F124021388DA00D3
:101CE000314B1A4407F5FD4C0CF11B0C9CF80030ED
:101CF0000846114607F5FD4C0CF11C0CDCF80020E1
:101D00000CF018FA07F5FD4000F11B0002781346AD
:101D1000DB009B1A9B0007F5FD4101F11C010A68DD
:101D2000134407F5FD4202F11C02136007F5FD4C58
:101D30000CF1240CBCF80030013307F5FD4000F134
:101D40002400038007F5FD4101F126010B88172BC4
:101D50007FF652AF07F12803203B07F5FD4202F161
:101D600020021360114B07F5FD4C0CF11C0CCCF854
:101D70000030002307F5FD4000F1260003806BE0F2
:101D8000440FFF1FB0710B00747501008C750100CA
:101D90009C75010054F2FF1FAC750100C475010071
:101DA0007CF2FF1F20EDFF1F00EDFF1FC8F1FF1F9A
:101DB00007F5FD4101F126010A886E491346DB0053
:101DC0009B1A9B000B4407F5FD4C0CF1200CDCF832
:101DD00000205A6007F5FD4000F1260002886549A1
:101DE0001346DB009B1A9B000B4400225A7007F538
:101DF000FD4101F126010A885E491346DB009B1A6A
:101E00009B000B4408334FF496621A6007F5FD43BC
:101E100003F126031A8857491346DB009B1A9B00DF
:101E20000B44083300225A6007F5FD4C0CF1200CDE
:101E3000DCF8003003F5966307F5FD4000F1200063
:101E4000036007F5FD4101F126010B88013307F519
:101E5000FD4202F12602138007F5FD4C0CF1260C21
:101E6000BCF80030042BA3D943484449414A052318
:101E70000CF060F9424B424A1A60414B404A5A60AA
:101E8000404805F05BFE404805F058FE4FF48F6374
:101E900000930020022100223C4B14F06DFA4FF415
:101EA00092630093002003210022394B14F064FA5E
:101EB0004FF492630093002008210022354B14F068
:101EC0005BFA43F690430093002007210022324B37
:101ED00014F052FA4FF424730093002009210022D9
:101EE0002E4B14F049FA4FF424730093002005217F
:101EF00000222B4B14F040FA4FF42473009300207F
:101F000006210022274B14F037FA40F6484300938D
:101F100000200A210022244B14F02EFA31202349FC
:101F2000002213F013FD33202149002213F00EFD8F
:101F300052202049002213F009FD4C201E490022A6
:101F400013F004FD2A201D49002213F0FFFC02209B
:101F500012F062F8042012F05FF8012012F05CF831
:101F6000002012F0EFF91DF02BFB07F5FD47283795
:101F7000BD4680BDC8F1FF1F40EDFF1F48EDFF1FAC
:101F8000680FFF1FDC750100FC75010050EDFF1F9D
:101F9000000000209004002020090020404A00207A
:101FA000D04C0020604F0020F0510020094100007B
:101FB00089410000C5410000F941000001430000D3
:101FC00080B58AB002AF78600023BB6107F10C03D3
:101FD000184614F02BFF314B01221A703048402173
:101FE0000022002313F02AFF2C4B00221A70FB68FA
:101FF00018461E2105F0E0FD0346002B4AD007F1EC
:102000000C03184614F012FF0023FB773FE0002377
:10201000BB61FB7FDA00234B1A4407F1180310461B
:1020200019460CF0C3F8BB69002B2DD0BB695B7857
:10203000002B20D01C4B1B78002B11D1BB691A78C8
:10204000BB69D968194BA3FB01035B089BB2B96953
:102050004968009110460121032211F0E5FC0AE0D5
:10206000BB691A78124B1B88124900911046012156
:10207000032211F0D9FCFB7FDA000F4B1A44BB6935
:10208000104619460CF0BCF8FB7F0133FB77FB7F51
:10209000032BBCD90A2014F053FE9CE7E400FF1F79
:1020A000440FFF1F20EDFF1F24F5FF1FABAAAAAAB4
:1020B00048F7FF1F385E002000EDFF1F80B58CB091
:1020C00000AF78600023FB62184A07F10C03106828
:1020D000516803C353233B750023FB75FB7DBB7520
:1020E000BB7D7B7501233B7600237B760B23BB7680
:1020F00000237B777B7F3B773B7FFB760A23BB7795
:102100001323FB77012387F8203007F1210207F121
:102110000C0303CB10605160002387F8293054234F
:1021200087F82A30024814F00BFEFBE70076010026
:10213000407E050080B584B000AF78600023FB814D
:10214000384820210022002313F078FE364B1B88EC
:10215000013B032B60D801A252F823F06D2100004F
:10216000D1210000E9210000012200002D480821B2
:1021700013F030FD2B48042113F02CFD2B4B40F2C3
:10218000AA221A800023FB8119E0FA8913465B001A
:102190001344274AFF21D154FA8913465B001344A4
:1021A0000133234A0021D154FA8913465B001344BA
:1021B00002331F4A0021D154FB890133FB811B4BA1
:1021C0001B88FA899A42E0D31A4B01221A7023E045
:1021D0001448082113F0FEFC1248042113F044FDBA
:1021E000144B01221A7017E00E48042113F0F2FC80
:1021F0000C48082113F038FD0E4B01221A700BE039
:102200000848082113F0E6FC0648042113F0E2FC1C
:10221000084B00221A7000BF0248202113F0DAFC9C
:102220008EE700BF440FFF1F54F7FF1F48F7FF1F43
:10223000385E002024F5FF1F80B485B000AFF86041
:10224000B9607A607B68FA685A60FB687A681A60DD
:10225000FB68BA685A60BB68FA681A601437BD46F2
:102260005DF8047B704700BF80B582B000AF786036
:1022700039603B685B68786819463A68FFF7DCFFAD
:102280000837BD4680BD00BF80B483B000AF786022
:1022900039603B687A685A607B683A681A600C3724
:1022A000BD465DF8047B704780B582B000AF7860B2
:1022B0007B685A687B681B6810461946FFF7E4FF85
:1022C0007B68044A1A607B68034A5A600837BD4637
:1022D00080BD00BF0001100000022000F0B5ADF588
:1022E000AD5D85B002AF07F10803043B1860002321
:1022F00007F5AC5000F11F000370002307F5AC5147
:1023000001F11E010B70002307F5AC5202F11D0212
:10231000137040F6B83307F5AD5C0CF1060CACF861
:102320000030002307F5AD500360002307F5AC51E2
:1023300001F118010B6007F5A05307F5AD521360CA
:10234000002307F5AD5C0CF1040CACF8003047E05D
:1023500007F5AD5000F10400028807F59E5101F128
:1023600008011346DB009B1A9B000B4407F5AD5197
:102370000A685A6007F5AD5303F104031A8807F59C
:102380009E5101F108011346DB009B1A9B000B4490
:102390000833C8221A6007F5AD5C0CF1040CBCF8D8
:1023A000002007F59E5101F108011346DB009B1A3E
:1023B0009B000B44083300225A6007F5AD500368B8
:1023C000C83307F5AD510B6007F5AD5202F10402B9
:1023D0001388013307F5AD5C0CF1040CACF8003048
:1023E00007F5AD5000F104000388012BB0D907F5C3
:1023F0009E5303F10803734873491A4602230BF0F6
:1024000099FE07F59D5307F5AD510B60002307F5C5
:10241000AD5202F10402138047E007F5AD5303F11A
:1024200004031A8807F59D5101F10C011346DB00E6
:102430009B1A9B000B4407F5AD5CDCF800205A604A
:1024400007F5AD5000F10400028807F59D5101F138
:102450000C011346DB009B1A9B000B4408330A2235
:102460001A6007F5AD5101F104010A8807F59D5185
:1024700001F10C011346DB009B1A9B000B4408334F
:1024800000225A6007F5AD5213680A3307F5AD5CB8
:10249000CCF8003007F5AD5000F10400038801339B
:1024A00007F5AD5101F104010B8007F5AD5202F1C2
:1024B00004021388002BB0D007F59D5303F10C03E1
:1024C000424843491A4601230BF034FE07F59C535A
:1024D00003F1140307F5AD5CCCF80030002307F5D9
:1024E000AD5000F10400038047E007F5AD5101F164
:1024F00004010A8807F59B5101F118011346DB001E
:102500009B1A9B000B4407F5AD5CDCF800205A6079
:1025100007F5AD5000F10400028807F59B5101F169
:1025200018011346DB009B1A9B000B4408330A2258
:102530001A6007F5AD5101F104010A8807F59B51B6
:1025400001F118011346DB009B1A9B000B44083372
:1025500000225A6007F5AD5213680A3307F5AD5CE7
:10256000CCF8003007F5AD5000F1040003880133CA
:1025700007F5AD5101F104010B8007F5AD5202F1F1
:1025800004021388002BB0D007F59B5303F1180306
:10259000104811491A4601230BF0CCFD0F4B0F4A8E
:1025A0001A600E4B0D4A5A600D4B0D4A1A600C4BC7
:1025B0000B4A5A60002307F5AD5C0CF1040CACF833
:1025C00000302CE034F5FF1F28F5FF1F40F5FF1FFA
:1025D0004C00FF1F5400FF1F5C00FF1F6400FF1F23
:1025E0006C00FF1F07F5AD5000F10400018807F1F2
:1025F00028021C3A0B465B000B441B012833134492
:102600001846BC49FFF730FE07F5AD5101F1040152
:102610000B88013307F5AD5202F10402138007F570
:10262000AD5C0CF1040CBCF80030632BDAD900F07F
:1026300093FC00F095FE07F5965303F10C03AE4AA8
:102640001A6007F5965303F10C03AC4A5A6007F57C
:10265000965303F10C03AA4A9A6007F5965303F1C7
:102660000C03A84ADA6007F5965303F10C03A64A57
:102670001A6107F5965303F10C03A44A5A6107F552
:10268000965303F10C03A24A9A6107F5965303F19E
:102690000C03984ADA6107F5965202F10C029D4B41
:1026A00002F120041D460FCD0FC495E80F0007C4AA
:1026B000238007F5965303F10C03964A3E331E32EE
:1026C000146850689168D5681C6058609960DD6036
:1026D0001469506991691C6158619961127F1A7778
:1026E00007F5965303F10C038A4A5B333B321068BB
:1026F00051681860596012891A8107F5965202F1E3
:102700000C02844B4533653203F130041146184600
:10271000D0F800E046688568C068C1F800E04E6007
:102720008D60C86010331032A342EFD11868596829
:10273000106051601B7A137207F5965303F10C0376
:10274000754AC3F89E2007F5965303F10C03734AAC
:10275000C3F8A22007F5965303F10C03704AC3F89F
:10276000A62007F5965303F10C0318460BF0A8FAC0
:1027700000F09CFE0346002B07D000F0B3FF034699
:10278000002B02D0674805F0D9F907F5965202F1FF
:102790000C02604B02F120041D460FCD0FC495E8DA
:1027A0000F0007C4238007F5965303F10C03594A21
:1027B0003E331E32146850689168D5681C605860BA
:1027C0009960DD601469506991691C615861996173
:1027D000127F1A7707F5965303F10C034D4A5B33CA
:1027E0003B32106851681860596012891A8107F5E8
:1027F000965202F10C02474B4533653203F1300427
:1028000011461846D0F800E046688568C068C1F8EF
:1028100000E04E608D60C86010331032A342EFD1EB
:1028200018685968106051601B7A137200F02CFC14
:1028300007F5965303F10C0318460BF041FA0BF021
:1028400015FD034607F5AC5000F11E00037007F5B7
:10285000AC5101F11E010B78002B03D1324805F079
:102860006DF902E0314805F069F9002030490BF0BC
:10287000F9FE0CF057F8034607F5AC5202F11E02C0
:10288000137007F5AC5C0CF11E0C9CF80030002BAB
:1028900003D1284805F052F902E0274805F04EF927
:1028A000264B1B78012B00F0C880022B00F06981B9
:1028B000002B40F09881002002F0D6FD034607F57A
:1028C000AC5000F11D00037007F5AC5101F11D0182
:1028D0000B78042B00F2AF8001A252F823F000BF66
:1028E000372A0000372A0000372A0000412900005B
:1028F000352A00006C00FF1F34F5FF1F28F5FF1F6D
:1029000040F5FF1F4C00FF1F5400FF1F5C00FF1F1E
:102910006400FF1FC40EFF1FA137000045380000F0
:10292000FD380000087601002C7601003C7601009D
:1029300054F2FF1F4C760100647601004800FF1F2F
:10294000AB4803F073FFAB4803F062FFAA4803F003
:1029500051FFAA4803F078FF07F5AC5303F11003C9
:10296000184603F09BFF07F5AC5C0CF1100C9CF8CB
:102970000030194607F5AC5000F1110003781A46F3
:1029800007F5AC5C0CF1120C9CF8003007F5AC5C60
:102990000CF1130C9CF800000090994805F0CEF85B
:1029A00007F5AC5303F11003184603F069FF07F570
:1029B000AC5000F110000378194607F5AC5202F153
:1029C000110213781A4607F5AC5C0CF1120C9CF856
:1029D000003007F5AC5C0CF1130C9CF80000009083
:1029E000884805F0ABF807F5AC5303F1100318461F
:1029F00003F038FF07F5AC5000F1100003781946DA
:102A000007F5AC5202F1110213781A4607F5AC5CD7
:102A10000CF1120C9CF8003007F5AC5C0CF1130CB7
:102A20009CF800000090784805F088F8774B012268
:102A30001A7001E0FEE700BFD5E007F5965303F1F9
:102A40000C0393F82730184603F064FF03461C2B51
:102A500000F2C88001A050F823F000BF472B00000F
:102A6000E52B0000E52B0000E52B0000E52B000026
:102A7000E52B0000E52B0000E52B0000E52B000016
:102A8000E52B0000E52B0000E52B0000E52B000006
:102A9000E52B0000E52B0000E52B0000E52B0000F6
:102AA000E52B0000E52B0000D12A0000E52B0000FB
:102AB000E52B0000E52B0000392B0000E52B000082
:102AC000E52B0000E52B0000E52B00007F2B00002C
:102AD00007F5965303F10C0393F82030194607F5D8
:102AE000965303F10C0393F821301A4607F59653D9
:102AF00003F10C0393F8223007F5965000F10C0017
:102B000090F823000090424805F018F807F5965316
:102B100003F10C0393F8271007F5965303F10C0308
:102B20009B8C07F5965202F10C02203208461146A2
:102B30001A4603F085F823E0364804F0FFFF334BD4
:102B400002221A701CE0344804F0F8FF07F596538F
:102B500003F10C0393F8272007F5AD5101F10601AD
:102B60000B88591C07F5AD5C0CF1060CACF8001095
:102B7000104601211A46202302F0B2FF00E000BFF8
:102B800030E007F5965303F10C0393F8273018460D
:102B900003F0AEFE034603F00103002B09D007F556
:102BA000965303F10C0393F827301846012104F0E3
:102BB0000BF8022003F08EFE07F5965303F10C0389
:102BC00093F827301846042104F012F80BF064F94A
:102BD00000F026F8114B1B78002B02D000F00AF908
:102BE00001E000E000BF0A2014F0AAF858E600BF98
:102BF000800EFF1F8C0EFF1F900EFF1F880EFF1F01
:102C00007C760100B0760100C47601004800FF1F09
:102C1000D87601000C770100307701003200FF1FE9
:102C200080B5ADF58D6D02AF0023C7F85434BB1DE0
:102C300000221A8007F25443614819460BF0B6FA95
:102C4000D7F85434002B00F0B180D7F85434DB6847
:102C50005C48194604F072FFD7F85434DB68002B47
:102C600000F08880D7F85434DB68B3F5966F00F233
:102C70008180D7F854345B68C7F85834D7F8543497
:102C8000DB68A7F85C34D7F8580404F057FF6DE010
:102C9000B7F85C14BA1D07F1080340F24C400090ED
:102CA000D7F858040BF06EF90346A7F85E34B7F86E
:102CB0005E34002B05D0BB1D1B88B7F85C249A42FC
:102CC0003DD2414804F03AFFB7F85C343F4819461A
:102CD00004F034FF3E4804F031FFBB1D1B883B4825
:102CE000194604F02BFF3B4804F028FFB7F85E3488
:102CF0003648194604F022FF374804F01FFF00232E
:102D0000A7F85E3411E0B7F85E34D7F858241344BE
:102D10001B783248194604F011FF314804F00EFFC9
:102D2000B7F85E340133A7F85E34B7F85E24B7F81D
:102D30005C349A42E7D32B4804F000FF1AE007F115
:102D40000802B7F85E34002011461A460BF080F8EE
:102D5000BB1D1B88D7F858241344C7F85834BB1D33
:102D60001B88B7F85C24D31AA7F85C34B7F85C3436
:102D7000002B8DD1D7F854340022DA60D7F85434C0
:102D80009B68B3F5966F06D1D7F8543416481946A8
:102D90000BF036FA0BE0154B1B78002B07D0D7F859
:102DA0005434134819460BF02BFA00E003E00023DB
:102DB000C7F854343EE707F58C67BD4680BD00BFB9
:102DC00040EDFF1F5077010070770100A8770100E8
:102DD000AC770100B4770100BC770100C87701002F
:102DE000D0770100D477010048EDFF1F3100FF1FAD
:102DF000680FFF1F80B5B6B000AF0023C7F8CC3016
:102E000007F1CC03474819460BF0D0F9D7F8CC307E
:102E1000002B00D182E0D7F8CC305868D7F8CC30FE
:102E2000DB6899B2404B5B8D3A1D0BF03BF80346D3
:102E3000A7F8D430B7F8D430002B65D03B4B1B78C3
:102E4000072B02D93A4804F079FE0023A7F8D630C0
:102E50001AE0364B1B78072B0AD9B7F8D63007F1A2
:102E6000D802134413F8D43C3248194604F066FEE5
:102E70002E4B1B78072B02D92F4804F05FFEB7F8C2
:102E8000D6300133A7F8D630B7F8D620B7F8D4300B
:102E90009A42DED3254B1B78072B02D9274804F032
:102EA0004DFE0A23BB713A1DB7F8D43001201146FC
:102EB0001A4602F087FF034687F8D33097F8D330DD
:102EC000002B1ED11E4B1B685A1C1D4B1A601C4B3D
:102ED0001B68022B08D91B4B01221A701A4804F0F8
:102EE0002DFE174B00221A60184804F027FE97F8B1
:102EF000D3301048194604F021FE104804F01EFE9D
:102F000002E0134804F01AFED7F8CC300022DA6051
:102F1000D7F8CC300F4819460BF072F900BFD837FC
:102F2000BD4680BD34F5FF1FC40EFF1F0800FF1F04
:102F3000D8770100C8770100D0770100D47701006D
:102F40004400FF1F4800FF1FFC7701003C78010090
:102F50006878010028F5FF1F80B500AF364B0222CC
:102F60001A70364B03221A70354B03221A70354BF8
:102F700000221A70344B02221A70344B00221A704D
:102F8000334804F0DBFD334804F0D8FD324804F048
:102F9000D5FD324804F0D2FD274B1B783048194646
:102FA00004F0CCFD2F4804F0C9FD244B1B782C48BD
:102FB000194604F0C3FD2C4804F0C0FD2B4804F072
:102FC000BDFD214B1B782648194604F0B7FD254866
:102FD00004F0B4FD1D4B1B782148194604F0AEFDEA
:102FE000214804F0ABFD224804F0A8FD144B1B78E7
:102FF0001B48194604F0A2FD1A4804F09FFD114B2E
:103000001B781748194604F099FD174804F096FDFF
:10301000184804F093FD184804F090FD174804F098
:103020008DFD174804F08AFD164804F087FD094815
:1030300004F084FD80BD00BF30F5FF1F3EF5FF1F8B
:1030400048F5FF1F3DF5FF1F49F5FF1F3CF5FF1F2A
:10305000D477010098780100E4780100307901000C
:10306000A8770100507901005479010080790100AE
:10307000A0790100C0790100788A0100E07901009F
:10308000848A0100E479010080B582B000AF9648DF
:1030900004F054FD0023FB710DE0FB79934A1344C7
:1030A0009B7F9348194604F049FD924804F046FD81
:1030B000FB790133FB71FB79032BEED98E4804F0C9
:1030C0003DFD8A4B5B8C8A48194604F037FD8B48DE
:1030D00004F034FD8A4804F031FD844B93F8243029
:1030E0008348194604F02AFD864804F027FD7F4BEB
:1030F00093F825307E48194604F020FD824804F0FC
:103100001DFD7A4BD3F826307948194604F016FD98
:103110007E4804F013FD754B5B8D7548194604F02D
:103120000DFD7B4804F00AFD704B93F82C3070487D
:10313000194604F003FD774804F000FD6B4B93F84B
:103140002D306B48194604F0F9FC734804F0F6FC86
:10315000664BD3F82E306648194604F0EFFC6F48F2
:1031600004F0ECFC614B93F832306148194604F0EE
:10317000E5FC6B4804F0E2FC5C4BD3F833305C4870
:10318000194604F0DBFC674804F0D8FC574B93F871
:1031900037305748194604F0D1FC634804F0CEFCA0
:1031A000524B93F838305248194604F0C7FC5F4838
:1031B00004F0C4FC4D4B93F839304D48194604F0E7
:1031C000BDFC5B4804F0BAFC484B93F83A304848E1
:1031D000194604F0B3FC494804F0B0FC554804F02B
:1031E000ADFC424BB3F83B309BB24148194604F06A
:1031F000A5FC514804F0A2FC3C4B93F83D303C4800
:10320000194604F09BFC4D4804F098FC374B93F8AA
:103210003E303748194604F091FC494804F08EFCD2
:10322000324BB3F83F309BB23148194604F086FC6C
:10323000444804F083FC2D4B93F841302C48194648
:1032400004F07CFC404804F079FC284B93F84330B0
:103250002748194604F072FC3C4804F06FFC234BED
:1032600093F844302248194604F068FC234804F0DF
:1032700065FC374804F062FC1C4B93F845301C4851
:10328000194604F05BFC334804F058FC0023FB7142
:103290001EE00023BB7112E0FA79B9791348134696
:1032A0009B0013445B00134403440B444033DB791D
:1032B0002948194604F042FCBB790133BB71BB7944
:1032C0000A2BE9D9254804F039FCFB790133FB715D
:1032D000064B93F84630FA799A42DAD3074804F05D
:1032E0002DFC0837BD4680BD007A0100C40EFF1FCB
:1032F000A877010050790100207A0100D4770100FD
:10330000307A0100547A0100687A01007C7A010069
:103310008C7A0100A07A0100B47A0100C47A01001D
:10332000D87A0100EC7A0100007B0100147B0100D7
:103330002C7B0100487B0100687B0100787B010049
:10334000887B0100987B0100A87B0100B87B01000D
:10335000C47B0100E47B0100F47B0100F87B0100E9
:1033600080B588B000AF4FF4F823FB610023FB6009
:1033700000237B610023BB600023FB747DE0FB69BD
:10338000BA1D10461946022214F083F8FB69023375
:103390007B61FB88642B69D800237B8362E03A4B16
:1033A0001B68BB60B868FEF77FFFBB68283BFB600B
:1033B000FB6818467969082214F06BF8FB68002254
:1033C0001A72FB68FF225A72FB680A331846FF2103
:1033D0001E2214F067F8FB68283318462B49FEF7C5
:1033E00043FF2B4B1B78002B02D02A4804F0A6FB8E
:1033F000274B1B78002B05D0FB681B782648194605
:1034000004F09CFB224B1B78002B02D0234804F0D5
:1034100095FB1F4B1B78002B05D0FB685B781E4883
:10342000194604F08BFB1A4B1B78002B02D01C486A
:1034300004F084FB164B1B78002B06D0FB685B88DE
:103440009BB21848194604F079FB114B1B78002BEE
:1034500002D0154804F072FB7B8B01337B837B69C0
:1034600008337B61FB887A8B9A4298D3FB6903F51A
:103470008053FB61FB7C0133FB74FB7C022B7FF6EA
:103480007EAF2037BD4680BD6C00FF1F6400FF1F6C
:103490000800FF1FFC7B0100A8770100207C0100D1
:1034A0002C7C0100C8770100D477010080B586B07C
:1034B00000AF4FF4FE233B610023FB730023FB7539
:1034C0003B69804A11461A467E23084611461A4631
:1034D00013F0DFFF7B4B93F82430012B6AD9794B33
:1034E0007A221A70774B70225A70764BD9229A70D2
:1034F000744BC522DA70734B41F694729A80714B0B
:103500000122DA716F4BDA229A776E4B0422DA7756
:103510006C4BBD2283F820206A4B1A2283F82120AD
:10352000684B42F6F8625A84664B002283F82420E6
:10353000644B002283F82520624A002343F07F4336
:1035400043F47F0343F46A4343F06003D3840023CE
:1035500013855C4B4FF416725A855A4B032283F83D
:103560002C20584B012283F82D20564A002343F487
:103570009C4343F02003D38500231386514B032241
:1035800083F832204F4B002283F833205A6B02F02D
:103590007F425A634B4B012283F83720494B01226B
:1035A00083F83820474B002283F83920454B00220E
:1035B00083F83A20444B1B78012B03D9434804F08D
:1035C000BDFA13E012E0424804F0B8FAFB7D013383
:1035D000FB75FB7D0A2B09D93E4804F0AFFA3E4843
:1035E00004F0ACFA3D4B00221A7008E03B1D18466F
:1035F0004FF47A710AF0F0FB0346002BE3D1374B0E
:103600001B78002B09D02F4B03F13B023B1D03CB52
:10361000106051601B88138138E02A4B93F84130C9
:10362000012B09D8274B93F84330012B04D8254BA5
:1036300093F844300E2B29D9224B002242F00B0282
:1036400083F83B20002283F83C201E4B002283F8A5
:103650003D201C4B002283F83E201A4B002242F0F2
:103660000A0283F83F20002283F84020154B0022F5
:1036700083F84120134B002283F84220114B002293
:1036800083F843200F4B002283F844200D4B93F81E
:103690004630052B11D90B4B012283F84520094BED
:1036A000012283F84620074A0D4B473203CB1060B6
:1036B000516019889B7811819372FB7B18461837EB
:1036C000BD4680BDC40EFF1F0800FF1F387C0100EF
:1036D0005C7C0100887C0100AC7C01000900FF1FBC
:1036E000D87C010080B5ADF5805D84B000AF0023CB
:1036F00007F5805202F10F02137007F110030C3B23
:1037000007F5805202F1080213607E2307F580520C
:1037100002F10602138007F5805303F106031A88AD
:1037200007F110030C3B18461A4913F0B2FE7F2034
:1037300011F03AFD0346002B09D0174804F0FEF9BA
:10374000012307F5805202F10F02137017E007F50D
:10375000805303F106031A8807F110030C3B7F2006
:10376000002111F073FD0346002B08D00B4804F034
:10377000E5F9022307F5805202F10F02137007F5F5
:10378000805202F10F021378184607F58057103760
:10379000BD4680BDC40EFF1FE47C0100147D010006
:1037A00080B584B000AF786013460A46FA70BB70EB
:1037B0000023FB73BB78012B11D0022B1CD0002BF4
:1037C00000D026E0FB781D2B08D1FB7818487968DB
:1037D0001A4613F05EFE0123FB731AE019E0FB7832
:1037E0000A2B08D1FB78134879681A4613F051FE6A
:1037F0000123FB730DE00CE0FB78392B08D1FB783B
:103800000D4879681A4613F044FE0123FB73FFE765
:1038100000BFFB7B002B08D0FFF764FF074B1B7832
:10382000012B02D9064804F089F91037BD4680BD46
:10383000E20EFF1FFF0EFF1F090FFF1F0800FF1FF3
:103840003C7D010080B584B000AF78607B68BB60D0
:10385000BB68002B05D107F10803214819460AF07F
:10386000A5FCBB68002B38D0BB68DB68002B34D0CC
:103870001C4B1B78062B02D91B4804F05FF9002370
:10388000FB7316E0174B1B78062B08D9BB685A68E8
:10389000FB7B13441B781548194604F04FF9114B74
:1038A0001B78062B02D9124804F048F9FB7B013340
:1038B000FB73FA7BBB68DB689A42E3D3094B1B7846
:1038C000062B02D90B4804F039F9BB680022DA60F4
:1038D000BB68094819460AF093FC1037BD4680BD05
:1038E00040F5FF1F0800FF1F5C7D0100C877010045
:1038F000D0770100D47701004C00FF1F80B500AFE6
:10390000014804F01BF980BD807D010080B584B0C2
:1039100000AF78603F4804210022002312F08EFAA5
:103920000023FB8154E0FA8913465B0013443A4AB2
:103930000021D154394B1B88FA899A420BD3384B5A
:103940001B88FA899A4206D8FA8913465B00134409
:10395000314AFF21D154FA8913465B0013440133E5
:10396000304A11782C4AD154FA892C4B1B880333E6
:103970009A420DDBFA892A4B1B8803339A4207DCF3
:10398000FA8913465B0013440133234AFF21D154C3
:10399000FA8913465B0013440233234A11781E4A06
:1039A000D154FA891D4B1B8806339A420DDBFA89E4
:1039B0001B4B1B8806339A4207DCFA8913465B00CF
:1039C00013440233144AFF21D154FB890133FB8194
:1039D000164B1B88FA899A42A5D3104B1B880133DA
:1039E0009AB20E4B1A800E4B1B8801339AB20C4BC5
:1039F0001A800A4B1A880D4B1B889A4205D9074B2F
:103A000000221A80064B03221A80142013F098F922
:103A100080E700BF440FFF1F385E00207400FF1FC7
:103A20000A00FF1F7600FF1F7700FF1F48F7FF1FE8
:103A300080B584B000AF78600023FB604FF4417024
:103A40000AF008FCC82013F07BF9F7E790B58BB0BB
:103A500002AF78600623BB777C487D4900220123B2
:103A60000DF066FC794800210D227A4B0BF060FACC
:103A7000B861BB69002B3ED0764B1A78764B1A7032
:103A8000744B5B781B029AB2724B9B7813449AB2C8
:103A9000724B1A806F4BDB781B029AB26D4B1B790D
:103AA00013449AB26E4B1A806A4B5A796D4B1A7056
:103AB000684B9B791A06674BDB791B041A44654BEC
:103AC0001B7A1B021A44634B5B7A13441A46664BFB
:103AD0001A60614B1B781946604B1B881A46604B75
:103AE0001B886048007804465F4800680094019095
:103AF0005E4804F023F800F075F95B4B1A68594BE7
:103B00001B78B2FBF3F25A4B1A600023FB7704E0F8
:103B100000F0BCF8FB7F0133FB77FA7FBB7F9A4252
:103B2000F6D35448402112F09FF85248102112F069
:103B30009BF8514B01221A704E481021002200239D
:103B400012F07CF94C4B00221A704C4B1B78002B66
:103B500076D04B4B00221A604A4B00221A603B4839
:103B60003B49002201230DF0E3FB384800210D22E0
:103B7000384B0BF0DDF9B861BB69002B44D0354BF5
:103B80001A78354B1A70334B5B781B029AB2314B63
:103B90009B7813449AB2314B1A802E4BDB781B0270
:103BA0009AB22C4B1B7913449AB22D4B1A80294B95
:103BB0005A792C4B1A70274B9B791A06254BDB79C7
:103BC0001B041A44234B1B7A1B021A44214B5B7AB9
:103BD00013441A46244B1A601F4B1B7819461F4B7F
:103BE0001B881A461E4B1B881E48007804461E4838
:103BF0000068009401901D4803F0A0FF134BDB699F
:103C00002148194603F09AFF00F0ECF8164B1A68A9
:103C1000144B1B78B2FBF3F2154B1A600023FB77B1
:103C200004E000F033F8FB7F0133FB77FB7F032BCD
:103C3000F7D91048402112F017F8104B00221A70E3
:103C400000F024F80A2013F07BF872E748F6FF1F13
:103C5000887D01007800FF1F8400FF1F8600FF1F82
:103C600050F7FF1F8800FF1F8C00FF1F947D01008D
:103C70004CF7FF1F440FFF1FE300FF1FE200FF1F71
:103C80009400FF1F9800FF1FF07D010080B588B0F1
:103C900000AF0023FB7600237B6100237B6064235D
:103CA0007B820023FB6173E0444B1B68002B02D135
:103CB000434B0A221A60424B1A6807F10803414835
:103CC000114603220BF034F978617B69002B5CD03C
:103CD0003B7A7B747B7C042B0BD93B480EF0E0FBDA
:103CE00038483949394A0EF0CBF9394B01221A705C
:103CF00054E07B7C013BDA00364B1A443B1D1046F6
:103D000019460AF053FA7B68002B3ED07B7A1A02E0
:103D1000BB7A1343FB607B689A68FB689A422AD39C
:103D2000274B1B68DA1C7B685B6826481146FA68DB
:103D30000BF0FEF878617B687A7C1A707B68FA6811
:103D4000DA607B6801225A701D4B1A687B69134444
:103D5000DA1C1B4B1A60194B1B685A1C174B1A6054
:103D60007B7C013BDA001C4B1A447B6810461946E9
:103D70000AF046FA09E07B7C013BDA00154B1A4455
:103D80007B68104619460AF03BFAFB690133FB6178
:103D9000124B1B781A46FB699A4285D8104B1B6858
:103DA0005A1E064B1B689A4205D2044B00221A6029
:103DB000034B0A221A602037BD4680BD9800FF1FC2
:103DC0009400FF1F48F6FF1F887D01001CF5FF1FB0
:103DD000E200FF1F00EDFF1F20EDFF1F8800FF1F07
:103DE0008C00FF1F80B584B000AF0023BB600023B0
:103DF0007B600023FB7322E01B4B1A683B461B4889
:103E0000114603220BF094F8B860BB68002B13D066
:103E10007B781A02BB7813437B607A68144BA3FB50
:103E200002135B089AB2134B1A800F4B1A687B6817
:103E30001344DA1C0C4B1A60FB7B0133FB730E4BF3
:103E40001B78FA7B9A42D7D30B4B1B781A469B0000
:103E5000D31A1A46044B1B681344A3F10A02074BFA
:103E60001A601037BD4680BD0C00FF1F48F6FF1FCB
:103E7000ABAAAAAA48F7FF1F8800FF1F9000FF1FE8
:103E800080B5ADF50F6D00AF3B1D18600023C7F87E
:103E9000EC38532387F8E038542387F8E138FF23C0
:103EA00087F8E238452387F8D838542387F8D9387B
:103EB000FF2387F8DA385A4880210022002311F0C6
:103EC000BDFF07F5FB6318465649002201230DF09C
:103ED0002FFA53484FF4807111F0C6FE50484FF44A
:103EE00080710022002311F0A9FF07F5FB6207F1A2
:103EF00008031046D7F8EC184FF4FA620BF018F8E4
:103F0000C7F8E808D7F8E838002B49D0D7F8E838E0
:103F10001B0ADBB287F8E338D7F8E838DBB287F85A
:103F2000E438D7F8EC28D7F8E8381344C7F8EC3869
:103F3000032012F005FF0420EE210FF0D9FF07F552
:103F40000E63012005211A4610F004F8D7F8E8386E
:103F50009AB207F10803012011461A460FF0FAFF42
:103F600007F6D803012003211A460FF0F3FF0420BF
:103F7000AA210FF0BDFF2A484FF4807111F02AFEEC
:103F8000012012F0DDFE40F20520002111F058F86A
:103F9000012012F0D5FE4FF441700AF05BF99DE765
:103FA000002387F8E338052387F8E43807F50E6324
:103FB000012005211A460FF0CDFF0120FF210FF04F
:103FC00097FF0120FF210FF093FF012000210FF048
:103FD0008FFF0120FF210FF08BFF0120FF210FF049
:103FE00087FF07F6D803012003211A460FF0B2FF1E
:103FF0000B484FF4807111F0EDFD00BF0023C7F8AE
:10400000EC3807F5FB6318460FF08EFA0448802160
:1040100011F0E0FD0248102111F026FE4BE700BF31
:10402000440FFF1F007E010080B584B000AF7860B0
:104030002F4808210022002311F000FF0023FB81FC
:104040001CE0FA8913465B0013442A4A11782A4A75
:10405000D154FA8913465B0013440133274A11787F
:10406000254AD154FA8913465B0013440233244A8B
:104070001178214AD154FB890133FB81214B1B88E4
:10408000FA899A42DDD31E4B1B78002B0BD1194BBA
:104090001B78053BDAB2174B1A70184B1B780533A7
:1040A000DAB2164B1A70134B1B78002B0BD1134B43
:1040B0001B78053BDAB2114B1A70114B1B78053394
:1040C000DAB20F4B1A700D4B1B78002B0BD10C4B37
:1040D0001B78053BDAB20A4B1A70064B1B78053386
:1040E000DAB2044B1A70142012F02AFEA0E700BFC7
:1040F000440FFF1F1000FF1F385E00209C00FF1FB1
:104100009D00FF1F48F7FF1F80B584B000AF7860A7
:104110000123BB7307F10E03012019460FF044FF82
:104120000346FB73FB7B1846154900F083F80346F2
:10413000002B21D040F20520012110F081FF042046
:10414000CC210FF0D5FE0E4B1B78532B14D10C4B0A
:104150005B78012B10D10A4B9B78002B0CD1084BBC
:10416000DB78552B08D10420DD210FF0C1FE054876
:104170004FF4807111F078FD1037BD4680BD00BF4F
:10418000700FFF1F440FFF1F80B582B000AF0123E7
:10419000BB7102200FF070FFBB1D022019460FF00B
:1041A00003FF0346FB71BB79002B04D1FB7904208C
:1041B00019460FF09DFE02200FF02EFF0837BD4676
:1041C00080BD00BF80B584B000AF78600123BB73B1
:1041D00007F10E03042019460FF0E6FE0346FB73B9
:1041E000BB7B002B04D1FB7B042019460FF080FE23
:1041F0001037BD4680BD00BF80B582B000AF78608B
:10420000012002F075FB034603F00403002B06D0E7
:10421000012001F0B1FB0120042102F0D5FC044B88
:10422000034AD26C42F08072DA640837BD4680BD22
:1042300000A0044080B485B000AF03463960FB7134
:104240000023FB732D4B1B78002B02D0012B10D0C9
:104250001AE0FB79532B0BD13B68FA791A70274B84
:104260001B780133DAB2254B1A700023FB733DE053
:104270003CE03B680133FA791A70204B1B7801331C
:10428000DAB21E4B1A7031E01C4B1B78012B15D98A
:104290001A4B1B781A463B6801331B7801339A424C
:1042A0000CDC164B1B783A681344FA791A70134BDE
:1042B0001B780133DAB2114B1A7017E00F4B1B78E1
:1042C0001A463B6801331B7802339A420EDBFB79B6
:1042D000552B07D1094B1B783A681344FA791A70A9
:1042E0000123FB73054B00221A7000BFFB7B1846AD
:1042F0001437BD465DF8047B704700BF9E00FF1F6A
:1043000080B500AF00200A490FF0E0FF0346012B03
:104310000AD10848202111F0A7FC054B1B8806484C
:10432000194603F00BFC02E0044803F007FC80BDD3
:1043300054F7FF1F440FFF1F107E0100247E010071
:1043400080B500AF024811F053FF11F0ABFF80BD04
:104350002089010080B582B000AF0346FB71FB7974
:10436000002B05D14FF48A70002110F069FE07E0A0
:10437000FB79012B04D14FF48A70012110F060FE0B
:104380000837BD4680BD00BF80B584B000AF03468E
:10439000FB71022010F02AF8F860FB799BB2022032
:1043A00019460FF063FF00BFFB68DB6A03F40033BC
:1043B000002BF9D007F10A03022019460FF086FFFF
:1043C0007B89DBB218461037BD4680BD80B483B010
:1043D00000AF78607B681A067B6803F47F431B029A
:1043E0001A437B6803F47F031B0A1A437B681B0E86
:1043F000134318460C37BD465DF8047B704700BF79
:1044000080B483B000AF0346FB80FB881B029AB2E6
:10441000FB881B0A9BB29BB213439BB29BB218460C
:104420000C37BD465DF8047B704700BF80B582B095
:1044300000AF78607868FFF7C9FF03461846083771
:10444000BD4680BD80B400AF084B00221A60084B07
:1044500000221A60054B1B685A1D064B1A60064B5A
:1044600000221A70BD465DF8047B7047AC00FF1F48
:10447000B400FF1FB000FF1FA900FF1FB0B588B038
:1044800002AFA54A07F11003106818600023FB82F1
:10449000A24B1B68184600214FF4097213F002F872
:1044A0009E4B1B6801221A709C4B1B6801225A709C
:1044B0009A4B1B6806229A70984B1B680022DA7090
:1044C000964B1C68964B1B681846FFF77FFF034608
:1044D0006360924B1C680020FFF792FF0346238124
:1044E0008E4B1C684FF40040FFF78AFF0346638140
:1044F0008A4B1B688B4A126812781A77874B1B68A5
:10450000884A126852785A77844B1B68854A126829
:1045100092789A77814B1B68824A1268D278DA7750
:104520007E4B1B687F4A1268127983F820207B4BF0
:104530001B687C4A1268527983F82120774B1A68ED
:10454000FB8A591CF9821344632283F8EC20734BD5
:104550001A68FB8A591CF9821344822283F8EC20E2
:104560006E4B1A68FB8A591CF9821344532283F854
:10457000EC206A4B1A68FB8A591CF98213446322A7
:1045800083F8EC20654B1A68FB8A591CF9821344A6
:10459000352283F8EC20614B1A68FB8A591CF9829A
:1045A0001344012283F8EC205C4B1A68FB8A591CE7
:1045B000F9821344012283F8EC20584B1A68FB8AD5
:1045C000591CF98213443D2283F8EC20534B1A689E
:1045D000FB8A591CF9821344072283F8EC204F4BC5
:1045E0001A68FB8A591CF9821344012283F8EC20D3
:1045F0004A4B1968FB8A5A1CFA824A4A1268127896
:104600000B4483F8EC20454B1968FB8A5A1CFA824C
:10461000444A126852780B4483F8EC203F4B1968E7
:10462000FB8A5A1CFA823F4A126892780B4483F83C
:10463000EC203A4B1968FB8A5A1CFA82394A1268F4
:10464000D2780B4483F8EC20344B1968FB8A5A1C4F
:10465000FA82344A126812790B4483F8EC202F4B0B
:104660001968FB8A5A1CFA822E4A126852790B4446
:1046700083F8EC20294B1A68FB8A591CF9821344F1
:104680000C2283F8EC20254B1D68FB8A5A1CFA8209
:104690001C463B1D184612F015FF0346DAB22B19D3
:1046A00083F8EC201D4B1A68FB8AE83313441A1D6B
:1046B0003B1D1046194612F0FDFE3B1D184612F038
:1046C00001FF03469AB2FB8A1344FB82134B1A681C
:1046D000FB8A591CF9821344372283F8EC200F4BD4
:1046E0001A68FB8A591CF9821344062283F8EC20CD
:1046F0000A4B1A68FB8A591CF9821344012283F879
:10470000EC20064B1A68FB8A591CF98213440322D9
:1047100083F8EC2008E000BF547E01002C00FF1F4E
:104720002800FF1F1400FF1F1F4B1A68FB8A591C2B
:10473000F9821344062283F8EC201B4B1A68FB8A8B
:10474000591CF98213440F2283F8EC20164B1A6887
:10475000FB8A591CF98213443A2283F8EC20124B4D
:104760001A68FB8A591CF98213443B2283F8EC2017
:104770000D4B1A68FB8A591CF9821344FF2283F8F7
:10478000EC20094B1A6807F1100343210091002027
:1047900011464FF4097201F0D5FB044803F0CEF93D
:1047A0001837BD46B0BD00BF2C00FF1F3C7E010086
:1047B000B0B588B002AF0023FB821A4B1B681846C5
:1047C00000214FF4097212F06DFE164B1B68012296
:1047D0001A70144B1B6801225A70124B1B68062278
:1047E0009A70104B1B680022DA700E4B1C680E4B3F
:1047F0001B681846FFF7EAFD03466360094B1C6817
:104800000020FFF7FDFD03462381084B1B78022B98
:104810000ED8044B1C684FF40040FFF7F1FD03462F
:10482000638114E02C00FF1F2800FF1FA800FF1F5A
:10483000A44B1B6800225A81A24B1B6803F10C0297
:10484000A14B1B6810461946042212F022FE9D4B14
:104850001B6803F11C029D4B1B681046194606227B
:1048600012F017FE974B1A68FB8A591CF982134401
:10487000632283F8EC20934B1A68FB8A591CF98257
:104880001344822283F8EC208E4B1A68FB8A591C51
:10489000F9821344532283F8EC208A4B1A68FB8A6E
:1048A000591CF9821344632283F8EC20854B1A6863
:1048B000FB8A591CF9821344352283F8EC20814B82
:1048C0001A68FB8A591CF9821344012283F8EC20F0
:1048D0007C4B1A68FB8A591CF9821344032283F823
:1048E000EC20784B1A68FB8A591CF98213443D224C
:1048F00083F8EC20734B1A68FB8A591CF982134425
:10490000072283F8EC206F4B1A68FB8A591CF98246
:104910001344012283F8EC206A4B1968FB8A5A1C65
:10492000FA826A4A126812780B4483F8EC20654BCD
:104930001968FB8A5A1CFA82644A126852780B443E
:1049400083F8EC205F4B1968FB8A5A1CFA825F4A95
:10495000126892780B4483F8EC205A4B1968FB8A52
:104960005A1CFA82594A1268D2780B4483F8EC2018
:10497000544B1968FB8A5A1CFA82544A12681279FD
:104980000B4483F8EC204F4B1968FB8A5A1CFA82BF
:104990004E4A126852790B4483F8EC204C4B1B783A
:1049A000022B77D8474B1A68FB8A591CF9821344AB
:1049B000322283F8EC20434B1A68FB8A591CF98297
:1049C0001344042283F8EC203E4B1968FB8A5A1CDE
:1049D000FA823D4A126812780B4483F8EC20394B76
:1049E0001968FB8A5A1CFA82374A126852780B44BB
:1049F00083F8EC20334B1968FB8A5A1CFA82324A3E
:104A0000126892780B4483F8EC202E4B1968FB8ACD
:104A10005A1CFA822C4A1268D2780B4483F8EC2094
:104A2000284B1A68FB8A591CF9821344362283F8F2
:104A3000EC20244B1A68FB8A591CF9821344042287
:104A400083F8EC201F4B1968FB8A5A1CFA82214A12
:104A500012780B4483F8EC201A4B1968FB8A5A1C15
:104A6000FA821C4A52780B4483F8EC20154B1968E3
:104A7000FB8A5A1CFA82174A92780B4483F8EC207E
:104A8000104B1968FB8A5A1CFA82124AD2780B44DE
:104A900083F8EC200B4B1A68FB8A591CF9821344EB
:104AA0000C2283F8EC20074B1D68FB8A5A1CFA8203
:104AB0001C463B1D184612F005FD0346DAB22B19C1
:104AC0000AE000BF2C00FF1F2400FF1F1400FF1F7F
:104AD000A800FF1FA000FF1F83F8EC204B4B1A68B3
:104AE000FB8AE83313441A1D3B1D1046194612F089
:104AF000E1FC3B1D184612F0E5FC03469AB2FB8A26
:104B00001344FB82414B1A68FB8A591CF9821344F7
:104B1000372283F8EC203D4B1A68FB8A591CF98236
:104B20001344082283F8EC20384B1A68FB8A591C7E
:104B3000F9821344012283F8EC20344B1A68FB8A73
:104B4000591CF9821344032283F8EC202F4B1A6876
:104B5000FB8A591CF9821344062283F8EC202B4B64
:104B60001A68FB8A591CF98213440F2283F8EC203F
:104B7000264B1A68FB8A591CF98213443A2283F89F
:104B8000EC20224B1A68FB8A591CF98213443B2201
:104B900083F8EC201D4B1A68FB8A591CF9821344D8
:104BA0001F2283F8EC20194B1A68FB8A591CF982E2
:104BB0001344212283F8EC20144B1A68FB8A591CF9
:104BC000F9821344FF2283F8EC20114B1B78022B4F
:104BD00007D807F110031846FF21042212F062FCE7
:104BE00002E00C4B1B683B61084B1A6807F110038D
:104BF00043210091002011464FF4097201F0A2F9FF
:104C0000054802F09BFF1837BD46B0BD2C00FF1FC2
:104C1000A800FF1FA000FF1F587E010090B587B0BD
:104C200002AF0346FB710023FB813C4B1B68184617
:104C300000214FF4097212F035FC384B1B68012239
:104C40001A70364B1B6801225A70344B1B680622BF
:104C50009A70324B1B680022DA70304B1C68304B64
:104C60001B681846FFF7B2FB034663602B4B1C68BA
:104C70000020FFF7C5FB03462381284B1B68002259
:104C80005A81264B1B6803F11C02264B1B681046F9
:104C90001946062212F0FDFB204B1A68FB89591CAD
:104CA000F9811344632283F8EC201C4B1A68FB89BA
:104CB000591CF9811344822283F8EC20174B1A689F
:104CC000FB89591CF9811344532283F8EC20134BC0
:104CD0001A68FB89591CF9811344632283F8EC207C
:104CE0000E4B1A68FB89591CF9811344352283F84D
:104CF000EC200A4B1A68FB89591CF98113440122E4
:104D000083F8EC20054B1968FB895A1CFA811A4676
:104D100097F90730002B07D1072306E02C00FF1F6F
:104D20002800FF1F1400FF1F04230A4482F8EC3000
:104D3000834B1A68FB89591CF98113443D2283F87F
:104D4000EC207F4B1A68FB89591CF9811344072218
:104D500083F8EC207A4B1A68FB89591CF9811344BB
:104D6000012283F8EC20764B1968FB895A1CFA81E2
:104D7000744A126812780B4483F8EC20704B19685F
:104D8000FB895A1CFA816F4A126852780B4483F8E7
:104D9000EC206B4B1968FB895A1CFA81694A12682E
:104DA00092780B4483F8EC20654B1968FB895A1CF8
:104DB000FA81644A1268D2780B4483F8EC20604B85
:104DC0001968FB895A1CFA815E4A126812790B44F1
:104DD00083F8EC205A4B1968FB895A1CFA81594A0E
:104DE000126852790B4483F8EC20554B1A68FB8902
:104DF000591CF9811344362283F8EC20504B1A6871
:104E0000FB89591CF9811344042283F8EC204C4B94
:104E10001968FB895A1CFA814B4A12780B4483F8B3
:104E2000EC20474B1968FB895A1CFA81464A527894
:104E30000B4483F8EC20424B1968FB895A1CFA8119
:104E4000414A92780B4483F8EC203D4B1968FB896A
:104E50005A1CFA813C4AD2780B4483F8EC2097F92B
:104E60000730002B41D0364B1A68FB89591CF98159
:104E70001344322283F8EC20314B1A68FB89591C09
:104E8000F9811344042283F8EC202D4B1968FB8927
:104E90005A1CFA812D4A126812780B4483F8EC20D0
:104EA000274B1968FB895A1CFA81284A12685278E4
:104EB0000B4483F8EC20224B1968FB895A1CFA81B9
:104EC000224A126892780B4483F8EC201C4B196834
:104ED000FB895A1CFA811D4A1268D2780B4483F868
:104EE000EC201B4802F02AFE02E01A4802F026FEDF
:104EF000134B1A68FB89591CF9811344FF2283F86C
:104F0000EC2097F90730002B07D007F1080318466B
:104F1000FF21042212F0C6FA02E00B4B1B68BB60B3
:104F2000074B1A6807F1080343210091002011463E
:104F30004FF4097201F006F81437BD4690BD00BF6A
:104F40002C00FF1F1400FF1FA000FF1F2400FF1FE5
:104F50006C7E0100807E010090B58BB002AF0346ED
:104F6000FB800023BB76964B1968FA8807F10C0387
:104F700007F10A000090002001F0ACF803463B83E3
:104F8000904B1B7819468F4B5B781A468D4B9B785C
:104F90008C48C07800908C4802F0D0FD8B4B1B7879
:104FA00019468A4B5B781A46884B9B788748C078AD
:104FB0000090874802F0C2FD3B7B19467B7B1A4676
:104FC000BB7BF87B0090834802F0B8FD7C4B1B68EC
:104FD0001B78022B02D17B89432B04D07E4802F040
:104FE000ADFD002317E2764B1B6803F11C027B4BDF
:104FF0001B6810461946062212F03CFA0346002BA5
:105000000AD16F4B1B685C68754B1B681846FFF72D
:10501000DDF903469C4263D0724802F08FFD6F4B6E
:105020001B681B7819466D4B1B6801331B781A46A9
:105030006A4B1B6802331B786B4802F07FFD674B9D
:105040001B6803331B781946644B1B6804331B78B9
:105050001A46624B1B6805331B78644802F06EFDEC
:10506000574B1B681B7FDBB259B2554B1B685B7FEC
:10507000DBB25AB2524B1B689B7FDBB25BB25C481F
:1050800002F05CFD4E4B1B68DB7F19464C4B1B68E6
:1050900093F820301A464A4B1B6893F82130534846
:1050A00002F04CFD464B1B685A684D4B1B6851483B
:1050B00011461A4602F042FD414B1B681B7C194603
:1050C0003F4B1B685B7C1A463D4B1B689B7C3C48F6
:1050D0000068C07C0090484802F030FD00239AE14F
:1050E000384B1B68002B1CD0384B1A6807F10C0397
:1050F0001B689A4215D0334B1A6807F10C031B68E2
:105100009A420ED03D4802F019FD3B7B19467B7B4D
:105110001A46BB7BF87B0090394802F00FFD002354
:1051200079E1384B1A68264B1B6810331046194634
:10513000042212F0AEF9344802F000FD314B1B6836
:105140001B7819462F4B1B6801331B781A462D4BD1
:105150001B6802331B782B480068033000780090EE
:105160002A4802F0EBFC0023FB76154B1B68FB6121
:10517000FB69F033FB613B8BF03BFA6913447B61C5
:10518000F9697A693B8B224802F0D8FC3DE1FB6962
:105190005A1CFA611B78062B00F09B80062B07DC5B
:1051A000012B4CD0032B6FD0002B00F029811CE188
:1051B000352B36D0352B2DDC332B00F0978014E1C6
:1051C0002C00FF1FA000FF1F947E0100A400FF1F02
:1051D000AC7E0100C47E0100DC7E01001400FF1FD4
:1051E0002800FF1FF47E0100247F0100447F01009E
:1051F000547F0100787F01009C7F0100BC7F01008B
:10520000FC7F01002400FF1F1080010024800100AA
:105210003C800100362B7DD0FF2B40F0E680FB7EEA
:10522000F9E0FB695A1CFA611B78BB76FB691B78B5
:10523000FB76FB7E7A48194602F080FCE1E0FB69D0
:105240005A1CFA611B78BB76764B1B681846F969C5
:10525000042212F01EF9744802F070FC714B1B68B6
:105260001B7819466F4B1B6801331B781A466D4B30
:105270001B6802331B786B4800680330007800908D
:105280006A4802F05BFCBCE0FB695A1CFA611B78BF
:10529000BB76674B1B681846F969042212F0F9F8CF
:1052A000644802F04BFC624B1B681B781946604B4C
:1052B0001B6801331B781A465D4B1B6802331B7851
:1052C0005B480068033000780090584802F036FCD4
:1052D00097E0FB695A1CFA611B78BB76564B1B683A
:1052E0001846F969042212F0D4F88AE0FB695A1CC6
:1052F000FA611B78BB76FB691B681846FFF796F8C6
:1053000002464E4B1A604D4B1B684D48194602F041
:1053100015FC76E0FB695A1CFA611B78BB76494B99
:105320001B781946474B5B781A46464B9B78454895
:10533000C0780090444802F001FC424B1B68002BEF
:105340000DD0424B1A6807F10C031B689A4206D035
:105350003C4B1A6807F10C031B689A4229D1394B60
:10536000FA6910681860394BFA681A60384802F018
:10537000E5FB344B1B781946324B5B781A46314BB0
:105380009B783048C0780090284802F0D7FB31481D
:1053900002F0D4FB2D4B1B7819462C4B5B781A4638
:1053A0002A4B9B782948C0780090204802F0C6FB21
:1053B00027E0294802F0C2FB224B1B781946214BFB
:1053C0005B781A461F4B9B781E48C0780090234894
:1053D00002F0B4FB3B7B19467B7B1A46BB7BF87B18
:1053E00000901F4802F0AAFB0BE0FB695A1CFA610F
:1053F0001B78BB76BB7E1B48194602F09FFB00E082
:1054000000BFBB7EFA691344FB61FA697B699A426B
:10541000FFF4BDAE002318462437BD4690BD00BF43
:105420005C8001001800FF1F788001008880010067
:105430001C00FF1F988001002000FF1F68FBFF1F5A
:10544000AC800100A000FF1FC8800100A400FF1F66
:10545000E4800100008101002481010048810100F5
:105460005C8101007481010080B586B002AF034603
:10547000FB710023FB73FB79184601F04BFA0346DE
:10548000002B0FD0FB79184601F09CFA0346BB8134
:10549000BB89002B1CD0BB891846FFF75DFD034676
:1054A000FB7315E0794B1B78002B02D1784802F092
:1054B00045FB002002214422002300F011FB03469B
:1054C000002B05D17348002102F038FB0123D9E0FD
:1054D0006E4B1B78042B00F2C78001A252F823F018
:1054E000F5540000115500003355000085550000AB
:1054F000CD550000684B00221A70FEF7A3FFFEF79F
:10550000BDFF664B00221A70604B01221A70AFE09B
:10551000FB7B022B0AD1FEF795FFFFF749F95B4BA6
:1055200002221A705E4802F009FBA1E000F0D2F8F6
:105530009EE0FB7B052B16D1FEF784FF00F020F9DF
:105540000346002B07D0574802F0F8FA4F4B0322CE
:105550001A70032396E0544802F0F0FA4B4B0122F4
:105560001A7004238EE0FB7B062B08D1FEF76AFF3E
:10557000464B01221A704C4802F0E0FA78E000F045
:10558000A9F875E0494B1B68B3F1FF3F1DD0474BAD
:105590001B685A08464B1B689A4216D20023FB73BD
:1055A000444B1A68444B10681860444B1B685A1CE3
:1055B000424B1A60FFF7FCF8344B04221A70404843
:1055C00002F0BCFAFEF73EFF52E051E0FB7B052BF8
:1055D0003AD1384B1B6838481946042211F04AFF6B
:1055E0000346002B27D0374802F0A8FA324B1B782D
:1055F0001946314B5B781A462F4B9B782E48C07862
:105600000090314802F09AFA2A4B1B681B78194621
:10561000284B1B6801331B781A46264B1B68023344
:105620001B7824480068033000780090274802F077
:1056300085FA032326E0264802F080FAFEF702FFEF
:10564000124B03221A700EE0FB7B062B08D1FEF7EB
:10565000F9FE0E4B01221A70134802F06FFA02E0B5
:1056600000F038F804E003E0084B00221A7000BF95
:10567000094B1B78012B04D1044B00221A70022322
:1056800000E0002318461037BD4680BDA800FF1F6C
:1056900084810100A0810100AA00FF1F64FBFF1F9D
:1056A000C4810100E48101000082010068FBFF1F4A
:1056B000AC00FF1F2400FF1F60FBFF1F2800FF1F1F
:1056C0002082010040820100748201008882010072
:1056D000A082010080B500AF204B1B78022B2FD891
:1056E0001F4B1A681F4B1B689A4236D91C4B00226D
:1056F0001A601B4B1B685A1D1A4B1A60174B1B78FC
:105700000133DAB2154B1A70174B1B78022B0AD0F3
:10571000042B0ED0012B00D011E0144802F00EFA39
:10572000FEF7ACFE0BE0124802F008FAFFF740F873
:1057300005E0104802F002FAFFF73AF800BF0CE06B
:10574000FEF780FE0C4B01221A70FEF797FE064B07
:1057500001221A70094802F0F1F980BDA900FF1F6B
:10576000AC00FF1FB000FF1FA800FF1FC882010090
:10577000F482010020830100AA00FF1F4C83010076
:1057800080B582B002AF184B1B681B781946164BC8
:105790001B6801331B781A46134B1B6802331B78B6
:1057A00011480068033000780090104802F0C6F9F4
:1057B0000D4B1B6841F28832009200200C491122E7
:1057C00000F0C0FB0346002B07D00A4802F0B6F9F0
:1057D0000120FFF723FA002303E0074802F0AEF9A7
:1057E00001231846BD4680BD2400FF1F74830100BD
:1057F0009C830100B0830100C0830100B0B58AB072
:1058000004AF324A07F110031068516803C32F4AEE
:1058100007F108031068516803C300237B602C4B19
:105820002C4A1A602C480021042211F03BFE2B4820
:105830000021042211F036FE29480021042211F033
:1058400031FE00F0B7FE274800F0F0FF3B1D184680
:1058500000F0DEFF3B1D184600F0CCFF3B1D184654
:1058600000F0F2FF204B1B681B7819461E4B1B688B
:1058700001331B781A461C4B1B6802331B781A48ED
:105880000068033000780546174800680430007847
:105890000446154800680530007800950194029090
:1058A000124802F04BF907F1100207F10803104605
:1058B000194600F085FE0E4B00221A700D4800219B
:1058C00002F03CF91837BD46B0BD00BF0C840100A2
:1058D0002800FF1F7856341260FBFF1FA000FF1F37
:1058E000A400FF1F800EFF1F1400FF1FD0830100C4
:1058F000A800FF1FF483010080B584B000AF78607A
:105900000323FB737B68002B2ED07B68DB68022BA4
:1059100014D97B685A687B68DB68013B13441B78A9
:10592000542B0BD17B685A687B68DB68023B1344BD
:105930001B78552B02D00023FB7315E07B68D968D8
:105940007B685A687B68DB68013B13441B781A4606
:105950007B6858687B68DB68023B03441B7805481A
:1059600002F0ECF80123FB73FB7B18461037BD46B1
:1059700080BD00BF1484010080B58CB000AF034629
:10598000FB710023BB62002387F82F30FB79184698
:1059900001F018F80346BB85BB8D002B00F0948006
:1059A000BA8D40F24C439A4205D807F12803484883
:1059B000194608F0FBFBBB6A002B05D107F1280351
:1059C0004448194608F0F2FBBB6A002B64D0BB6A5E
:1059D0009A68BB8D9A425FD3BB6ABA8DDA60BB6AA4
:1059E00000221A74BB6A5A68F979BB8D08461146C1
:1059F0001A4600F079FABB6A1846FFF77DFF0346A6
:105A0000002B0BD1BB6ABA8DDA60BB6A32481946EB
:105A100008F0F6FB012387F82F300FE0BB6A9B6884
:105A2000B3F5966F05D1BB6A2A48194608F0E8FB22
:105A300004E0BB6A2648194608F0E2FB53233B7595
:105A400000237B750A23BB750023FB7500233B767F
:105A5000BB6A5B68053307F114020532104619462C
:105A6000062211F016FD0023FB7797F82F30002B4C
:105A700001D0B12300E0B22387F82030002387F85B
:105A80002130542387F8223007F1140301201946EE
:105A90000F2200F097F917E0BB8D1048194602F06D
:105AA0004DF8BB6A002B0FD0BB6A9B68B3F5966FAD
:105AB00005D1BB6A0748194608F0A2FB04E0BB6A9F
:105AC0000348194608F09CFB3037BD4680BD00BF37
:105AD000680FFF1F48EDFF1F40EDFF1F60840100AE
:105AE00080B584B000AFF871B971BA80FB70BB7932
:105AF00003F00F03012B13D0BB7903F00F03022B2C
:105B00000ED0BB7903F00F03032B09D0BB7903F050
:105B10000F03042B04D0BB7903F00F03052B61D1D5
:105B2000FB79184600F068F8FB795B0108331A46E8
:105B3000B979FB780B43DBB21046194600F048FCFC
:105B4000BB88002B18D0FB795B0103F581631A46F3
:105B5000BB881B0A9BB2DBB21046194600F038FC2A
:105B6000FB795B0103F5A1631A46BB88DBB21046E3
:105B7000194600F02DFC1FE01E4B1B8801339AB222
:105B80001C4B1A80FB795B0103F581631A46194BA4
:105B90001B881B0A9BB2DBB21046194600F018FCAA
:105BA000FB795B0103F5A1631A46124B1B88DBB23C
:105BB0001046194600F00CFCFB795B0103F5847379
:105BC0001846012100F004FC00BFFB795B0103F5DE
:105BD0008473184600F02CFC0346002BF5D10123FA
:105BE000FB7301E00023FB73FB7B18461037BD46B7
:105BF00080BD00BFB800FF1F80B582B000AF034674
:105C0000FB71FB795B0103F584731846102100F0EA
:105C1000DFFB00BFFB795B0103F58473184600F0DE
:105C200007FC0346002BF5D1FB795B0103F50273FA
:105C30001846FF2100F0CCFB0837BD4680BD00BFF1
:105C400080B584B000AF396013460246FA71BB805C
:105C50003B681B78FF2B0ED13B6801331B78FF2B71
:105C600009D13B6802331B78FF2B04D13B68033317
:105C70001B78FF2B15D03B681B78002B0ED13B689F
:105C800001331B78002B09D13B6802331B78002BB2
:105C900004D13B6803331B78002B02D0BB88002B58
:105CA00002D10023FB7387E00123FB73FB795B01C7
:105CB00003F608431A463B681B781046194600F065
:105CC00087FBFB795B0103F608531A463B680133F7
:105CD0001B781046194600F07BFBFB795B0103F64D
:105CE00008631A463B6802331B781046194600F0D9
:105CF0006FFBFB795B0103F608731A463B680333BD
:105D00001B781046194600F063FBFB795B0103F535
:105D1000805308331A46BB881B0A9BB2DBB210467D
:105D2000194600F055FBFB795B0103F588530833F6
:105D30001A46BB88DBB21046194600F049FBFB79D6
