:10000000000002201104000099040000990400007F
:100010009904000099040000990400000000000009
:100020000000000000000000000000001551010069
:10003000990400000000000097510100FF510100E9
:10004000FF510100FF510100FF510100FF5101006C
:10005000FF510100FF510100FF510100FF5101005C
:10006000FF510100FF510100FF510100FF5101004C
:10007000FF510100FF510100FF510100FF5101003C
:10008000FF510100FF510100FF510100FF5101002C
:10009000FF510100FF510100FF510100FF5101001C
:1000A000FF510100FF510100FF510100FF5101000C
:1000B000FF510100FF510100FF510100FF510100FC
:1000C000FF510100FF510100FF510100FF510100EC
:1000D000FF510100FF510100FF510100FF510100DC
:1000E000FF510100FF510100FF510100FF510100CC
:1000F000FF510100FF510100FF510100FF510100BC
:10010000FF510100FF510100FF510100FF510100AB
:10011000FF510100FF510100FF510100FF5101009B
:10012000FF510100FF510100FF510100FF5101008B
:10013000FF510100FF510100FF510100FF5101007B
:10014000FF510100FF510100FF510100FF5101006B
:10015000FF510100FF510100FF510100FF5101005B
:10016000FF510100FF510100FF510100FF5101004B
:10017000FF510100FF510100FF510100FF5101003B
:10018000FF510100FF510100FF510100FF5101002B
:08019000FF510100FF510100C5
:10040000FFFFFFFFFFFFFFFFFFFFFFFFFEFFFFFFFD
:100410000D4A0E480E494FF008033BB140F8042B3B
:1004200041F8042BA3F10103FFF7F7BFEFF30880B6
:1004300080F30988EFF3148040F0020080F3148801
:10044000BFF36F8F00F006F8FFFFFFFF80E100E0D1
:1004500080E200E072B60BF01BFB62B609490A4A63
:100460000A4B9A42BEBF51F8040B42F8040BF8E75E
:100470000749084A00209142BCBF41F8040BFAE743
:1004800002F054FC385301000000FF1F2C00FF1F36
:100490002C00FF1F60FCFF1FFFF7FEBF81F0004133
:1004A00002E000BF83F0004330B54FEA41044FEA59
:1004B000430594EA050F08BF90EA020F1FBF54EAF4
:1004C000000C55EA020C7FEA645C7FEA655C00F090
:1004D000E2804FEA5454D4EB5555B8BF6D420CDD61
:1004E0002C4480EA020281EA030382EA000083EAE4
:1004F000010180EA020281EA0303362D88BF30BD84
:1005000011F0004F4FEA01314FF4801C4CEA1131D9
:1005100002D0404261EB410113F0004F4FEA033338
:100520004CEA133302D0524263EB430394EA050FC3
:1005300000F0A780A4F10104D5F1200E0DDB02FA32
:100540000EFC22FA05F2801841F1000103FA0EF2C6
:10055000801843FA05F359410EE0A5F120050EF18C
:10056000200E012A03FA0EFC28BF4CF0020C43FABD
:1005700005F3C01851EBE37101F0004507D54FF0CA
:10058000000EDCF1000C7EEB00006EEB0101B1F51A
:10059000801F1BD3B1F5001F0CD349085FEA300060
:1005A0004FEA3C0C04F101044FEA445212F5800F6B
:1005B00080F09A80BCF1004F08BF5FEA500C50F108
:1005C000000041EB045141EA050130BD5FEA4C0CEB
:1005D000404141EB010111F4801FA4F10104E9D174
:1005E00091F0000F04BF01460020B1FA81F308BF6B
:1005F0002033A3F10B03B3F120020CDA0C3208DD37
:1006000002F1140CC2F10C0201FA0CF021FA02F111
:100610000CE002F11402D8BFC2F1200C01FA02F181
:1006200020FA0CFCDCBF41EA0C019040E41AA2BFA6
:1006300001EB0451294330BD6FEA04041F3C1CDA6E
:100640000C340EDC04F11404C4F1200220FA04F08E
:1006500001FA02F340EA030021FA04F345EA030138
:1006600030BDC4F10C04C4F1200220FA02F001FAFA
:1006700004F340EA0300294630BD21FA04F029467C
:1006800030BD94F0000F83F4801306BF81F4801115
:100690000134013D4EE77FEA645C18BF7FEA655C88
:1006A00029D094EA050F08BF90EA020F05D054EA5A
:1006B000000C04BF1946104630BD91EA030F1EBF5F
:1006C0000021002030BD5FEA545C05D14000494163
:1006D00028BF41F0004130BD14F580043CBF01F556
:1006E000801130BD01F0004545F0FE4141F470013C
:1006F0004FF0000030BD7FEA645C1ABF1946104617
:100700007FEA655C1CBF0B46024650EA013406BF17
:1007100052EA033591EA030F41F4002130BD00BFD6
:1007200090F0000F04BF0021704730B54FF4806493
:1007300004F132044FF000054FF0000150E700BF14
:1007400090F0000F04BF0021704730B54FF4806473
:1007500004F1320410F0004548BF40424FF0000160
:100760003EE700BF42004FEAE2014FEA31014FEAA3
:1007700002701FBF12F07F4393F07F4F81F06051F2
:10078000704792F0000F14BF93F07F4F704730B561
:100790004FF4607401F0004521F0004120E700BFF4
:1007A00050EA010208BF704730B54FF000050AE07B
:1007B00050EA010208BF704730B511F0004502D57C
:1007C000404261EB41014FF4806404F132045FEA7E
:1007D000915C3FF4DCAE4FF003025FEADC0C18BF23
:1007E00003325FEADC0C18BF033202EBDC02C2F119
:1007F000200300FA03FC20FA02F001FA03FE40EAAB
:100800000E0021FA02F11444C1E600BF70B54FF0AA
:10081000FF0C4CF4E06C1CEA11541DBF1CEA13558C
:1008200094EA0C0F95EA0C0F00F0DEF82C4481EAF4
:10083000030621EA4C5123EA4C5350EA013518BF14
:1008400052EA033541F4801143F4801338D0A0FB01
:1008500002CE4FF00005E1FB02E506F00042E0FBAE
:1008600003E54FF00006E1FB03569CF0000F18BFB4
:100870004EF0010EA4F1FF04B6F5007F64F540745C
:1008800004D25FEA4E0E6D4146EB060642EAC621EF
:1008900041EA55514FEAC52040EA5E504FEACE2E5C
:1008A000B4F1FD0C88BFBCF5E06F1ED8BEF1004F5F
:1008B00008BF5FEA500E50F1000041EB045170BDDB
:1008C00006F0004646EA010140EA020081EA03011F
:1008D000B4EB5C04C2BFD4EB0C0541EA045170BD1B
:1008E00041F480114FF0000E013C00F3AB8014F195
:1008F000360FDEBF002001F0004170BDC4F10004DE
:10090000203C35DA0C341BDC04F11404C4F120055E
:1009100000FA05F320FA04F001FA05F240EA0200B9
:1009200001F0004221F0004110EBD37021FA04F6EF
:1009300042EB06015EEA430E08BF20EAD37070BDA9
:10094000C4F10C04C4F1200500FA04F320FA05F008
:1009500001FA04F240EA020001F0004110EBD3700A
:1009600041F100015EEA430E08BF20EAD37070BD7A
:10097000C4F1200500FA05F24EEA020E20FA04F353
:1009800001FA05F243EA020321FA04F001F0004102
:1009900021FA04F220EA020000EBD3705EEA430E73
:1009A00008BF20EAD37070BD94F0000F0FD101F0A2
:1009B0000046400041EB010111F4801F08BF013CDB
:1009C000F7D041EA060195F0000F18BF704703F019
:1009D0000046520043EB030313F4801F08BF013DA0
:1009E000F7D043EA0603704794EA0C0F0CEA13555C
:1009F00018BF95EA0C0F0CD050EA410618BF52EA16
:100A00004306D1D181EA030101F000414FF000001B
:100A100070BD50EA410606BF1046194652EA430629
:100A200019D094EA0C0F02D150EA013613D195EA9D
:100A30000C0F05D152EA03361CBF104619460AD1E5
:100A400081EA030101F0004141F0FE4141F47001EF
:100A50004FF0000070BD41F0FE4141F4780170BDDF
:100A600070B54FF0FF0C4CF4E06C1CEA11541DBF44
:100A70001CEA135594EA0C0F95EA0C0F00F0A7F846
:100A8000A4EB050481EA030E52EA03354FEA013173
:100A900000F088804FEA03334FF0805545EA131386
:100AA00043EA12634FEA022245EA111545EA10654E
:100AB0004FEA00260EF000419D4208BF964244F1E5
:100AC000FD0404F5407402D25B084FEA3202B61A04
:100AD00065EB03055B084FEA32024FF480104FF4D8
:100AE000002CB6EB020E75EB030E22BFB61A75464C
:100AF00040EA0C005B084FEA3202B6EB020E75EBDF
:100B0000030E22BFB61A754640EA5C005B084FEA46
:100B10003202B6EB020E75EB030E22BFB61A754613
:100B200040EA9C005B084FEA3202B6EB020E75EB1E
:100B3000030E22BFB61A754640EADC0055EA060EDF
:100B400018D04FEA051545EA16754FEA06164FEA22
:100B5000C30343EA52734FEAC2025FEA1C1CC0D1CE
:100B600011F4801F0BD141EA00014FF000004FF05B
:100B7000004CB6E711F4801F04BF01430020B4F11C
:100B8000FD0C88BFBCF5E06F3FF6AFAEB5EB030CD4
:100B900004BFB6EB020C5FEA500C50F1000041EBD1
:100BA000045170BD0EF0004E4EEA113114EB5C049E
:100BB000C2BFD4EB0C0541EA045170BD41F4801171
:100BC0004FF0000E013C90E645EA060E8DE60CEA79
:100BD000135594EA0C0F08BF95EA0C0F3FF43BAF96
:100BE00094EA0C0F0AD150EA01347FF434AF95EA4D
:100BF0000C0F7FF425AF104619462CE795EA0C0F31
:100C000006D152EA03353FF4FDAE1046194622E7FD
:100C100050EA410618BF52EA43067FF4C5AE50EAD7
:100C200041047FF40DAF52EA43057FF4EBAE12E7C7
:100C30004FF0FF3C06E000BF4FF0010C02E000BFA8
:100C40004FF0010C4DF804CD4FEA410C7FEA6C5C8B
:100C50004FEA430C18BF7FEA6C5C1BD001B050EA2E
:100C6000410C0CBF52EA430C91EA030F02BF90EA19
:100C7000020F0020704710F1000F91EA030F58BFD8
:100C8000994208BF90422CBFD8176FEAE37040F03A
:100C9000010070474FEA410C7FEA6C5C02D150EAD8
:100CA000013C07D14FEA430C7FEA6C5CD6D152EA93
:100CB000033CD3D05DF8040B704700BF8446104658
:100CC00062468C461946634600E000BF01B5FFF757
:100CD000B7FF002848BF10F1000F01BD4DF808ED27
:100CE000FFF7F4FF0CBF012000205DF808FB00BFF8
:100CF0004DF808EDFFF7EAFF34BF012000205DF852
:100D000008FB00BF4DF808EDFFF7E0FF94BF01209E
:100D100000205DF808FB00BF4DF808EDFFF7CEFF9F
:100D200094BF012000205DF808FB00BF4DF808EDDE
:100D3000FFF7C4FF34BF012000205DF808FB00BFAF
:100D40004A0011D212F5001211D20DD56FF478734A
:100D5000B3EB62520ED44FEAC12343F0004343EA9F
:100D6000505323FA02F070474FF00000704750EAEA
:100D7000013002D14FF0FF3070474FF00000704754
:100D80004BB942B9002908BF002802D04FF0FF310B
:100D9000084600F05DB882B0EC462DE9005000F046
:100DA0003FF8DDF804E002B00CBC704770B50022DB
:100DB0000D4B04460D46FFF729FDFFF7C1FF064620
:100DC000FFF7AEFC0022094BFFF720FD02460B4661
:100DD00020462946FFF766FBFFF7B2FF002242EAF2
:100DE00000042046314670BD0000F03D0000F04197
:100DF0002DE97043069E14461D468046894600F044
:100E000029F804FB01F300FB0533A4FB00451D4456
:100E1000B8EB040469EB0505C6E90045BDE870833D
:100E20002DE97043069E1446804689461D4600F013
:100E30005DF900FB05F504FB0153A0FB04451D44CF
:100E4000B8EB040469EB0505C6E90045BDE870830D
:100E5000704700BF00292DE9F00FC0F29F800024E9
:100E6000002BC0F29680154606460F46002B3ED159
:100E70008A4257D9B2FA82F34BB1C3F1200201FA88
:100E800003F720FA02F29D40174300FA03F6290CFB
:100E9000B7FBF1F2330C01FB127CA8B243EA0C471A
:100EA00000FB02F3BB4209D97F1902F1FF3C80F03D
:100EB0000181BB4240F2FE80023A2F44FF1AB7FB89
:100EC000F1F3B6B201FB137146EA014100FB03F0F6
:100ED000884208D9491903F1FF3780F0ED80884234
:100EE00040F2EA80023B43EA0242002303E08B42E5
:100EF0000AD900231A461046194614B1404261EB44
:100F00004101BDE8F00F7047B3FA83F8B8F1000F64
:100F100040F084808B4202D3824200F2DE800023C4
:100F20000122E8E712B90123B3FBF2F5B5FA85F225
:100F3000002A39D17F1B280C1FFA85FC0123B7FB3F
:100F4000F0F1320C00FB117742EA07470CFB01F28B
:100F5000BA4207D97F1901F1FF3802D2BA4200F232
:100F6000C1804146BF1AB7FBF0F2B6B200FB127067
:100F700046EA00400CFB02FC844507D9401902F107
:100F8000FF3702D2844500F2AB803A4642EA014282
:100F9000B1E7E443524263EB430364E7404261EB51
:100FA00041014FF0FF345BE79540C2F1200327FA7F
:100FB00003F1280C26FA03F39740B1FBF0F81F4326
:100FC0003B0C00FB18111FFA85FC43EA01410CFBA6
:100FD00008F38B4206FA02F608D9491908F1FF32E4
:100FE00079D28B4277D9A8F102082944C91AB1FBFA
:100FF000F0F3BFB200FB131147EA01470CFB03F209
:10100000BA4207D97F1903F1FF3160D2BA425ED9E3
:10101000023B2F44BF1A43EA084390E7C8F120027D
:1010200003FA08FC25FA02F343EA0C0C4FEA1C49C8
:1010300021FA02F301FA08F720FA02F2B3FBF9F100
:10104000174309FB11333A0C1FFA8CFB42EA0343A6
:101050000BFB01FA9A4505FA08F008D913EB0C03CB
:1010600001F1FF3235D29A4533D902396344CAEBD4
:101070000303B3FBF9F209FB1233BFB247EA03479C
:101080000BFB02F9B94508D917EB0C0702F1FF3346
:101090001BD2B94519D9023A674442EA0145A5FB7A
:1010A0000001C9EB07078F424FF000030AD305D0B8
:1010B0002A4620E7624601E73B4614E706FA08F6AF
:1010C0008642F5D26A1E002315E71A46E5E70B466D
:1010D000A0E71146CBE7904688E7434642460AE739
:1010E000023A53E702392F443CE700BF2DE9F00FE5
:1010F000144605460E46002B43D18A4253D9B2FA14
:1011000082F757B1C7F1200620FA06F601FA07F375
:1011100002FA07F41E4300FA07F5210CB6FBF1F2C0
:101120002B0C01FB1267A0B243EA074600FB02F357
:10113000B34209D9361902F1FF3780F0F680B34285
:1011400040F2F380023A2644F61AB6FBF1F3ADB250
:1011500001FB136145EA014100FB03F0884208D915
:10116000091903F1FF3680F0E280884240F2DF8007
:10117000023B43EA0242002310461946BDE8F00F45
:1011800070478B424AD8B3FA83F6002E4DD18B427A
:1011900002D3824200F2D680002301221046194673
:1011A000BDE8F00F704712B90124B4FBF2F4B4FAB1
:1011B00084F2002A7CD1091B260CA7B20123B1FBC3
:1011C000F6F02A0C06FB101142EA014107FB00F27F
:1011D0008A4207D9091900F1FF3C02D28A4200F283
:1011E000C3806046891AB1FBF6F2ADB206FB12115C
:1011F00045EA014507FB02F7AF4208D92C1902F175
:10120000FF3180F09680A74240F29380023A42EA92
:10121000004210461946BDE8F00F704700231A46F9
:1012200010461946BDE8F00F7047C6F1200522FAB6
:1012300005F4B3401C434FEA144821FA05F301FAC0
:1012400006F720FA05F5B3FBF8FC2F4308FB1C3327
:101250003D0C1FFA84FA45EA03430AFB0CF9994551
:1012600002FA06FB04D91B190CF1FF326DD3944628
:10127000C9EB0303B3FBF8F508FB1533BFB247EA2C
:1012800003470AFB05F8B84504D93F1905F1FF33B8
:1012900061D31D4645EA0C4CACFB0B23C8EB07079A
:1012A0009F424FF0000549D345D062462B4663E785
:1012B0009440C2F1200321FA03FC260C20FA03F328
:1012C00001FA02F5BCFBF6F843EA05010B0C06FB3C
:1012D00018CCA7B243EA0C4C07FB08F3634500FAAD
:1012E00002F509D91CEB040C08F1FF323AD2634530
:1012F00038D9A8F10208A444C3EB0C0CBCFBF6F3EC
:1013000089B206FB13CC41EA0C4107FB03F28A4287
:1013100007D9091903F1FF3022D28A4220D9023BB2
:101320002144891A43EA084349E73A460CE7334621
:101330001FE70A466BE7B0409042B6D20CF1FF328D
:10134000002319E73346324616E799458FD9ACF1A9
:10135000020C23448CE7B8459BD9023D274499E70A
:101360000346DEE79046C7E7023821443AE700BF6C
:1013700080B483B000AF074B1B687B607B68DB6B7E
:101380003B603B6883F308880C37BD465DF8047BFF
:10139000704700BF2800FF1FB0B483B000AF034602
:1013A0000A467B603B601C46032A40F2C480194613
:1013B00001F00101002907D07B607B68591C79602E
:1013C000002119707B68013A194601F002010029D9
:1013D00007D03B603B68991C3960002119803B684D
:1013E000023A1C46950940E023461C1D0021196065
:1013F00023461C1D0021196023461C1D0021196075
:1014000023461C1D0021196023461C1D0021196064
:1014100023461C1D0021196023461C1D0021196054
:1014200023461C1D0021196023461C1D0021196044
:1014300023461C1D0021196023461C1D0021196034
:1014400023461C1D0021196023461C1D0021196024
:1014500023461C1D0021196023461C1D0021196014
:1014600023461C1D00211960013D002DBCD19308AD
:1014700003F00F03013B0E2B5CD801A151F823F0C0
:101480002D150000251500001D1500001515000084
:101490000D15000005150000FD140000F5140000F6
:1014A000ED140000E5140000DD140000D514000068
:1014B000CD140000C5140000BD14000023461C1DFF
:1014C0000021196023461C1D0021196023461C1DA4
:1014D0000021196023461C1D0021196023461C1D94
:1014E0000021196023461C1D0021196023461C1D84
:1014F0000021196023461C1D0021196023461C1D74
:101500000021196023461C1D0021196023461C1D63
:101510000021196023461C1D0021196023461C1D53
:101520000021196023461C1D0021196023461C1D43
:1015300000211960234602F00201002906D03B6019
:101540003B68991C3960002119803B6802F0010258
:10155000002A01D000221A700C37BD46B0BC70477B
:1015600080B584B000AF78603960786839680AF077
:10157000E5FDF860FB68002B01D1FFF7F9FEFB6881
:1015800018461037BD4680BDF0B484B000AFF86097
:10159000B9607A60FB68D3E90001BB68D3E9002336
:1015A000121843EB01037968C1E90023FB689D68C9
:1015B000BB689C680D4B1B68D3F85461331BAB426E
:1015C0000DD87B68D3E90023013243F10003796829
:1015D000C1E90023A31B5A197B689A6002E02A190B
:1015E0007B689A601037BD46F0BC70472800FF1F2B
:1015F000B0B485B000AF7860124B1B68FB60FB682D
:10160000D3F854417B689B68A34216D37B689B68E0
:10161000B3FBF4F57B68D3E900012A464FF00003E1
:10162000121843EB01037968C1E900237B689A68CB
:1016300004FB05F3D21A7B689A601437BD46B0BC30
:10164000704700BF2800FF1F80B487B000AF254B54
:101650001B68FB60FB6803F5B073BB60BB68DB68AD
:101660007B617B69072B05D907237B61BB68072258
:10167000DA6007E07B69002B04D101237B61BB6842
:101680000122DA607B699BB25B019BB2DBB29AB24A
:10169000FB68DA8200233B6109E0134A3B6913448B
:1016A00003F54073C0221A703B6901333B613B690B
:1016B000EF2BF2D90D4B7B6000233B6109E03B69C6
:1016C0009B007A6813444FF0FF321A603B69013384
:1016D0003B613B69072BF2D91C37BD465DF8047BA3
:1016E000704700BF2800FF1F00E100E080E100E03C
:1016F00080B485B000AF264B1B687B607B680022FE
:101700001A627B68D3F8D43002333B60214BFB6014
:101710003B68BB602CE0FB68FA681A60FB68FA68FB
:101720005A60BB689AB2FB68DA817B68D3F86C2197
:10173000BB681344062B0ED87B68D3F86C319AB281
:10174000BB689BB213449BB25B019BB2DBB29AB203
:10175000FB689A8102E0FB68C0229A817B681A6A62
:10176000FB689A60FB6803F11002FA607A68136202
:10177000BB685A1EBA60002BCDD17B681A6A7B68A1
:101780005A62002318461437BD465DF8047B704743
:101790002800FF1F0405FF1F80B588B000AFF86068
:1017A000B9607A603B600123FB617B68013BBA68EA
:1017B000134423F00F03BB61BB69643B7B61FB688F
:1017C000BA691A61BB680F3323F00F031A46FB682E
:1017D0009A61FB687A695A6178696421FFF7DCFDD8
:1017E000104A7B691A647B69FA6ADA623B685B6853
:1017F00043F001027B695A647B694FF080729A64FE
:101800007B69FA6A9A657B6900221A607B69BA6A09
:101810005A607B696FF002029A62FB6918462037B2
:10182000BD4680BDC9CF000080B483B000AF7860F2
:101830000C37BD465DF8047B704700BF80B483B0B1
:1018400000AF03463960FB7197F90730002B0BDAC4
:101850000D49FB7903F00F03043B3A68D2B2120141
:10186000D2B20B441A7609E0084997F907303A6872
:10187000D2B21201D2B20B4483F800230C37BD461A
:101880005DF8047B704700BF00ED00E000E100E080
:1018900090B583B000AF1A4B1C684FF400500AF0AB
:1018A00069FF0F206521FFF75BFE78607B68002BE6
:1018B00001D07B6820E00F200BF05AFF0F20114968
:1018C00000220AF0DFFB0346002B01D1262313E0A0
:1018D00000F01EF80A4B1C680B4BC4F85031C823AB
:1018E000C4F84C31D4F8503118460BF065FF074866
:1018F00000210BF04DFF002318460C37BD4690BD6C
:101900002800FF1F41190000E09304005519000052
:1019100080B500AF084B00221A60074B00229A6086
:10192000054B064A5A604FF0FF300021FFF786FF53
:10193000014B07221A6080BD10E000E0BF270900BC
:1019400080B582B000AF78600BF054FE0837BD461A
:1019500080BD00BF80B487B000AF786000233B61DA
:10196000134B5B6823F07F430133FB60104B9B6894
:1019700023F07F437B610F4B5B6803F08063002B98
:1019800006D00B4B9B6823F07F437B61FB683B6178
:101990007B69002B01D1FB687B61FA687B69D21AF5
:1019A0003B69134418461C37BD465DF8047B7047FD
:1019B00010E000E000ED00E080B500AF0220002163
:1019C0000022002309F020F84FF48A700121002240
:1019D00009F04EFF4FF489700121002209F048FF01
:1019E0000A2002F0E3FF4FF48970012109F09CFF07
:1019F000014802F0DBFF80BD80841E0080B586B008
:101A000000AF274A07F110031068186092889A8087
:101A1000244A07F10C0310681860234A07F10803F1
:101A200010681860214A3B1D10681860204A3B4628
:101A3000106818601F4BFA68DA601E4BBA681A61AA
:101A40001C4B7A685A611B4B043307F1100292E871
:101A50000300186004331980164B3A689A61154BDD
:101A600000221A77134B01225A77124B0022DA8395
:101A7000104B002283F820200E4B01229A720D4B4E
:101A80000022DA7240F213100021002209F0F0FE69
:101A900040F213100A2109F09FFF1837BD4680BDA0
:101AA0005CDC000064DC000068DC00006CDC000032
:101AB00070DC0000000DFF1F80B5ADF5FD4D8CB052
:101AC00002AF07F12803243B1860AD4800210AF05B
:101AD0000DFC002307F5FD4000F11C000360062308
:101AE00007F5FD4101F11B010B704FF4417000211E
:101AF00003F08EF804204FF4E13108F009FD0220D4
:101B00004FF4165108F004FD01209E4908F000FD35
:101B100040F205200121002209F0AAFE40F20D202A
:101B20000121012209F0A4FE4FF48170012101225C
:101B300009F09EFE4FF4FA6002F038FFFFF73CFF19
:101B4000914802F013FFFFF759FF01F035F900202B
:101B500001210022002308F057FF03F077F8034625
:101B600007F5FD4202F11A02137007F5FD4C0CF166
:101B70001A0C9CF80030002B03D1844802F0F6FECA
:101B800002E0834802F0F2FE0020824903F05AFA94
:101B900003F050FB034607F5FD4000F11A00037007
:101BA00007F5FD4101F11A010B78002B03D17A48AA
:101BB00002F0DCFE02E0794802F0D8FE07F5BD53E2
:101BC00003F10803303B07F5FD4202F120021360E8
:101BD000734B07F5FD4C0CF11C0CCCF800300023C6
:101BE00007F5FD4000F126000380002307F5FD41C5
:101BF00001F124010B80A5E007F5FD4303F1260365
:101C00001A8867491346DB009B1A9B000B4407F5B3
:101C1000FD4C0CF1200CDCF800205A6007F5FD406B
:101C200000F1260002885E491346DB009B1A9B00E8
:101C30000B4400225A7007F5FD4101F126010A8884
:101C400057491346DB009B1A9B000B44083340F2B4
:101C50004C421A6007F5FD4303F126031A885049E8
:101C60001346DB009B1A9B000B44083300225A608A
:101C700007F5FD4C0CF1200CDCF8003003F24C436E
:101C800007F5FD4000F12000036007F5FD4101F17B
:101C900026010B88013307F5FD4202F1260213806D
:101CA00007F5FD4C0CF1260CBCF8003007F5FD40A3
:101CB00000F11B00027893FBF2F102FB01F29B1A88
:101CC000002B3FD107F5FD4101F124010B88DA001B
:101CD000344BD11807F5FD4202F124021388DA00D3
:101CE000314B1A4407F5FD4C0CF11B0C9CF80030ED
:101CF0000846114607F5FD4C0CF11C0CDCF80020E1
:101D000002F008FF07F5FD4000F11B0002781346C2
:101D1000DB009B1A9B0007F5FD4101F11C010A68DD
:101D2000134407F5FD4202F11C02136007F5FD4C58
:101D30000CF1240CBCF80030013307F5FD4000F134
:101D40002400038007F5FD4101F126010B88172BC4
:101D50007FF652AF07F12803203B07F5FD4202F161
:101D600020021360114B07F5FD4C0CF11C0CCCF854
:101D70000030002307F5FD4000F1260003806BE0F2
:101D8000C80DFF1FB0710B0074DC00008CDC00007C
:101D90009CDC000010F0FF1FACDC0000C4DC000085
:101DA00038F0FF1FDCEAFF1FBCEAFF1F84EFFF1FB4
:101DB00007F5FD4101F126010A8865491346DB005C
:101DC0009B1A9B000B4407F5FD4C0CF1200CDCF832
:101DD00000205A6007F5FD4000F1260002885C49AA
:101DE0001346DB009B1A9B000B4400225A7007F538
:101DF000FD4101F126010A8855491346DB009B1A73
:101E00009B000B4408334FF496621A6007F5FD43BC
:101E100003F126031A884E491346DB009B1A9B00E8
:101E20000B44083300225A6007F5FD4C0CF1200CDE
:101E3000DCF8003003F5966307F5FD4000F1200063
:101E4000036007F5FD4101F126010B88013307F519
:101E5000FD4202F12602138007F5FD4C0CF1260C21
:101E6000BCF80030042BA3D93A483B49384A052333
:101E700002F050FE394B394A1A60384B374A5A60E3
:101E8000374802F073FD374802F070FD4FF48F635E
:101E90000093002002210022334B0AF009FE4FF488
:101EA00092630093002003210022304B0AF000FED1
:101EB0004FF4926300930020082100222C4B0AF07B
:101EC000F7FD4FF424730093002005210022294BD5
:101ED0000AF0EEFD4FF42473009300200621002247
:101EE000254B0AF0E5FD41F69003009300200A21FE
:101EF0000022224B0AF0DCFD3120214900220AF0A9
:101F0000C1F833201F4900220AF0BCF852201E49B4
:101F100000220AF0B7F84C201C4900220AF0B2F85F
:101F20002A201B4900220AF0ADF8022008F0F4FC38
:101F3000042008F0F1FC012008F0EEFC002008F07D
:101F400081FE13F0E5F807F5FD472837BD4680BD53
:101F500084EFFF1FFCEAFF1F04EBFF1FEC0DFF1FC8
:101F6000DCDC0000FCDC00000CEBFF1F00000020AC
:101F70009004002040100020D012002060150020A6
:101F8000992A0000F12A00002D2B0000612B00008F
:101F9000ED2C000080B58AB002AF78600023BB61F1
:101FA00007F10C0318460BF0DDFA314B01221A70D1
:101FB00030484021002200230AF0DCFA2C4B00229A
:101FC0001A70FB6818461E2102F00EFD0346002B16
:101FD0004AD007F10C0318460BF0C4FA0023FB7734
:101FE0003FE00023BB61FB7FDA00234B1A4407F17B
:101FF00018031046194602F0C9FDBB69002B2DD00D
:10200000BB695B78002B20D01C4B1B78002B11D1B7
:10201000BB691A78BB69D968194BA3FB01035B083C
:102020009BB2B9694968009110460121032208F06A
:102030007BF90AE0BB691A78124B1B8812490091A0
:1020400010460121032208F06FF9FB7FDA000F4BE5
:102050001A44BB691046194602F0C2FDFB7F0133EA
:10206000FB77FB7F032BBCD90A200BF005FA9CE71A
:102070008600FF1FC80DFF1FDCEAFF1FE0F2FF1FF5
:10208000ABAAAAAAE0F4FF1FF02D0020BCEAFF1FB4
:1020900080B58CB000AF78600023FB62184A07F16E
:1020A0000C031068516803C353233B750023FB7571
:1020B000FB7DBB75BB7D7B7501233B7600237B7667
:1020C0000B23BB7600237B777B7F3B773B7FFB76C5
:1020D0000A23BB771323FB77012387F8203007F10E
:1020E000210207F10C0303CB10605160002387F835
:1020F0002930542387F82A3002480BF0BDF9FBE75A
:1021000000DD0000407E050080B584B000AF78603F
:102110000023FB8138482021002200230AF02AFAFC
:10212000364B1B88013B032B60D801A252F823F0E9
:1021300041210000A5210000BD210000D5210000A3
:102140002D4808210AF0E2F82B4804210AF0DEF8B5
:102150002B4B40F2AA221A800023FB8119E0FA8956
:1021600013465B001344274AFF21D154FA891346D2
:102170005B0013440133234A0021D154FA891346EA
:102180005B00134402331F4A0021D154FB89013301
:10219000FB811B4B1B88FA899A42E0D31A4B012220
:1021A0001A7023E0144808210AF0B0F812480421FC
:1021B0000AF0F6F8144B01221A7017E00E480421B9
:1021C0000AF0A4F80C4808210AF0EAF80E4B0122A4
:1021D0001A700BE0084808210AF098F80648042114
:1021E0000AF094F8084B00221A7000BF0248202120
:1021F0000AF08CF88EE700BFC80DFF1FF4F5FF1F33
:10220000E0F4FF1FF02D0020E0F2FF1F80B584B046
:1022100000AF78603F480421002200230AF0AAF9A9
:102220000023FB8154E0FA8913465B0013443A4AC9
:102230000021D154394B1B88FA899A420BD3384B71
:102240001B88FA899A4206D8FA8913465B00134420
:10225000314AFF21D154FA8913465B0013440133FC
:10226000304A11782C4AD154FA892C4B1B880333FD
:102270009A420DDBFA892A4B1B8803339A4207DC0A
:10228000FA8913465B0013440133234AFF21D154DA
:10229000FA8913465B0013440233234A11781E4A1D
:1022A000D154FA891D4B1B8806339A420DDBFA89FB
:1022B0001B4B1B8806339A4207DCFA8913465B00E6
:1022C00013440233144AFF21D154FB890133FB81AB
:1022D000164B1B88FA899A42A5D3104B1B880133F1
:1022E0009AB20E4B1A800E4B1B8801339AB20C4BDC
:1022F0001A800A4B1A880D4B1B889A4205D9074B46
:1023000000221A80064B03221A8014200BF0B4F826
:1023100080E700BFC80DFF1FF02D00202C00FF1F1D
:102320000800FF1F2E00FF1F2F00FF1FE0F4FF1FFC
:1023300080B582B000AF78604FF4417002F07AFC53
:10234000C8200BF099F8F7E790B58BB002AF786032
:102350000623BB777C487D490022012305F070FCF1
:10236000794800210D227A4B03F06AFAB861BB6903
:10237000002B3ED0764B1A78764B1A70744B5B78F4
:102380001B029AB2724B9B7813449AB2724B1A801A
:102390006F4BDB781B029AB26D4B1B7913449AB2D8
:1023A0006E4B1A806A4B5A796D4B1A70684B9B7949
:1023B0001A06674BDB791B041A44654B1B7A1B0218
:1023C0001A44634B5B7A13441A46664B1A60614B9E
:1023D0001B781946604B1B881A46604B1B88604867
:1023E000007804465F480068009401905E4802F05F
:1023F000BDFA00F075F95B4B1A68594B1B78B2FBBC
:10240000F3F25A4B1A600023FB7704E000F0BCF8AB
:10241000FB7F0133FB77FA7FBB7F9A42F6D35448A8
:10242000402109F0BDFF5248102109F0B9FF514B7E
:1024300001221A704E481021002200230AF09AF857
:102440004C4B00221A704C4B1B78002B76D04B4B18
:1024500000221A604A4B00221A603B483B49002286
:10246000012305F0EDFB384800210D22384B03F025
:10247000E7F9B861BB69002B44D0354B1A78354B6E
:102480001A70334B5B781B029AB2314B9B78134422
:102490009AB2314B1A802E4BDB781B029AB22C4B2E
:1024A0001B7913449AB22D4B1A80294B5A792C4B25
:1024B0001A70274B9B791A06254BDB791B041A44AB
:1024C000234B1B7A1B021A44214B5B7A13441A4696
:1024D000244B1A601F4B1B7819461F4B1B881A464A
:1024E0001E4B1B881E48007804461E480068009456
:1024F00001901D4802F03AFA134BDB692148194656
:1025000002F034FA00F0ECF8164B1A68144B1B7802
:10251000B2FBF3F2154B1A600023FB7704E000F0E6
:1025200033F8FB7F0133FB77FB7F032BF7D9104890
:10253000402109F035FF104B00221A7000F024F8FA
:102540000A200AF099FF72E7E0F3FF1F08DD0000A0
:102550003000FF1F3C00FF1F3E00FF1FE8F4FF1F7D
:102560004000FF1F4400FF1F14DD0000E4F4FF1FC4
:10257000C80DFF1F8500FF1F8400FF1F4C00FF1FB9
:102580005000FF1F70DD000080B588B000AF002351
:10259000FB7600237B6100237B6064237B82002326
:1025A000FB6173E0444B1B68002B02D1434B0A22B2
:1025B0001A60424B1A6807F108034148114603228A
:1025C00003F03EF978617B69002B5CD03B7A7B7429
:1025D0007B7C042B0BD93B4806F0EAFB3848394991
:1025E000394A06F0D5F9394B01221A7054E07B7C48
:1025F000013BDA00364B1A443B1D1046194602F0E7
:10260000C5FA7B68002B3ED07B7A1A02BB7A134353
:10261000FB607B689A68FB689A422AD3274B1B6849
:10262000DA1C7B685B6826481146FA6803F008F9F3
:1026300078617B687A7C1A707B68FA68DA607B68FC
:1026400001225A701D4B1A687B691344DA1C1B4B1C
:102650001A60194B1B685A1C174B1A607B7C013B94
:10266000DA001C4B1A447B681046194602F0B8FA8F
:1026700009E07B7C013BDA00154B1A447B6810466D
:10268000194602F0ADFAFB690133FB61124B1B786E
:102690001A46FB699A4285D8104B1B685A1E064B96
:1026A0001B689A4205D2044B00221A60034B0A228F
:1026B0001A602037BD4680BD5000FF1F4C00FF1F31
:1026C000E0F3FF1F08DD0000D8F2FF1F8400FF1FAA
:1026D000BCEAFF1FDCEAFF1F4000FF1F4400FF1F92
:1026E00080B584B000AF0023BB6000237B60002373
:1026F000FB7322E01B4B1A683B461B481146032222
:1027000003F09EF8B860BB68002B13D07B781A02E8
:10271000BB7813437B607A68144BA3FB02135B08FE
:102720009AB2134B1A800F4B1A687B681344DA1C59
:102730000C4B1A60FB7B0133FB730E4B1B78FA7B4F
:102740009A42D7D30B4B1B781A469B00D31A1A46D2
:10275000044B1B681344A3F10A02074B1A6010379D
:10276000BD4680BD0C00FF1FE0F3FF1FABAAAAAA65
:10277000E0F4FF1F4000FF1F4800FF1F80B586B038
:1027800000AF786000237B6153233B7301237B738D
:102790000023BB735523FB737D4B4FF4FC621A80FF
:1027A0007B4B09229A707A4B0622DA70784B112201
:1027B0001A71774B39225A71754B1E229A71002378
:1027C0007B82744B01221A7073487449704A06F078
:1027D000DFF8714BDB69002B1DD06D4B6E4A123256
:1027E000106818606A4B6C4A04330E321188927874
:1027F00019809A70684807F01FFB684806F0D8FAFD
:1028000065486649624A06F0C3F863486349002296
:10281000012305F015FA604860490022012305F004
:102820000FFA5F484FF480710022002309F0A2FEE6
:102830005C4BDB78002B24D15A4B1B79052B20D124
:10284000584B5B79FF2B1CD1564B9B79FF2B18D132
:10285000544BDB79002B14D1524B1B7AFF2B10D138
:10286000504B5B7AFF2B0CD14A4B01221A704C481B
:102870004FF4807109F04AFD4948102109F090FD9C
:10288000CFE7444B1B78012B40D1424B00221A70FA
:10289000454B00221A70454B00221A704048102107
:1028A00009F034FD3E48402109F030FD02E00220ED
:1028B0000AF0E2FD3C4B1B7883F00103DBB2002BF6
:1028C000F5D13A4B1B7883F00103DBB2002BEED13C
:1028D000374B314A123212681A60354B2E4A043394
:1028E0000E321188927819809A702B4807F0A4FA5A
:1028F0002A4806F05DFA284828492D4A06F048F88B
:10290000254826490022012305F09AF9254BDB785A
:102910001B029AB2234B1B7913439BB27B821E4846
:102920001E490022012305F08BF97B8A1A481946BB
:10293000204A07F035F87B6901337B614FF4417021
:1029400002F078F9144807F077FA03200AF094FDB2
:102950000420BB2107F04CFF07F10C0301200421E8
:102960001A4607F077FF0420CC2107F041FF0C48FE
:102970004FF4807109F0CAFC01200AF07DFD40F29D
:102980000520002108F0D0FF01200AF075FD48E77E
:10299000ECF4FF1F2816FF1FF4F4FF1F80DD00007A
:1029A000C80DFF1FF40DFF1F8500FF1F8600FF1FCE
:1029B000D8F2FF1FF90DFF1F80B584B000AF78601B
:1029C0002F4808210022002309F0D4FD0023FB81B9
:1029D0001CE0FA8913465B0013442A4A11782A4AFC
:1029E000D154FA8913465B0013440133274A117806
:1029F000254AD154FA8913465B0013440233244A12
:102A00001178214AD154FB890133FB81214B1B886A
:102A1000FA899A42DDD31E4B1B78002B0BD1194B40
:102A20001B78053BDAB2174B1A70184B1B7805332D
:102A3000DAB2164B1A70134B1B78002B0BD1134BC9
:102A40001B78053BDAB2114B1A70114B1B7805331A
:102A5000DAB20F4B1A700D4B1B78002B0BD10C4BBD
:102A60001B78053BDAB20A4B1A70064B1B7805330C
:102A7000DAB2044B1A7014200AF0FEFCA0E700BF83
:102A8000C80DFF1F1000FF1FF02D00205400FF1F76
:102A90005500FF1FE0F4FF1F80B584B000AF7860E1
:102AA0000123BB7307F10E030120194607F0FCFE5A
:102AB0000346FB73FB7B18460B4900F06FF8034697
:102AC000002B0DD040F20520012108F02DFF04203D
:102AD000AA2107F08DFE05484FF4807109F060FCD3
:102AE0001037BD4680BD00BFF40DFF1FC80DFF1F8E
:102AF00080B582B000AF0123BB71022007F03CFF1C
:102B0000BB1D0220194607F0CFFE0346FB71BB79BF
:102B1000002B04D1FB790420194607F069FE02203E
:102B200007F0FAFE0837BD4680BD00BF80B584B00F
:102B300000AF78600123BB7307F10E030420194630
:102B400007F0B2FE0346FB73BB7B002B04D1FB7B7B
:102B50000420194607F04CFE1037BD4680BD00BF6B
:102B600080B582B000AF7860012000F0FFFD034621
:102B700003F00403002B06D0012000F0DBF9012054
:102B8000042100F04DFF044B034AD26C42F08072E6
:102B9000DA640837BD4680BD00A0044080B485B02B
:102BA00000AF03463960FB710023FB734E4B1B885B
:102BB000042B55D801A252F823F000BFD12B0000FE
:102BC000F12B0000132C0000352C00004B2C0000D2
:102BD000FB79532B0BD13B68FA791A70424B1B8857
:102BE00001339AB2404B1A800023FB7374E073E008
:102BF000FB79542B0CD13B680133FA791A703A4BAC
:102C00001B8801339AB2384B1A800023FB7363E0B0
:102C100062E0FB79FF2B0CD13B680233FA791A7022
:102C2000314B1B8801339AB22F4B1A800023FB7360
:102C300052E051E03B680333FA791A702A4B1B8843
:102C400001339AB2284B1A8046E03B680433FA7984
:102C50001A70254B1B8801339AB2234B1A803BE034
:102C6000214B1B88042B1AD91F4B1B881A463B6823
:102C700003331B7819023B6804331B780B4304337E
:102C80009A420CDC184B1B883A681344FA791A7084
:102C9000154B1B8801339AB2134B1A801CE0124B60
:102CA0001B881A463B6803331B7819023B680433C0
:102CB0001B780B4305339A420EDBFB79452B07D17A
:102CC000094B1B883A681344FA791A700123FB7385
:102CD000054B00221A8000BFFB7B18461437BD4607
:102CE0005DF8047B704700BF5600FF1F80B500AF42
:102CF00000200A4907F06AFF0346012B0AD1084861
:102D0000202109F04DFB054B1B880648194601F0B0
:102D10002DFE02E0044801F029FE80BDF4F5FF1FFE
:102D2000C80DFF1F8CDD0000A0DD000080B500AFE6
:102D3000024809F0F9FD09F051FE80BDA4E400004D
:102D400080B582B000AF0346FB71FB79002B05D143
:102D50004FF48A70002108F0E7FD07E0FB79012BB2
:102D600004D14FF48A70012108F0DEFD0837BD461A
:102D700080BD00BF80B584B000AF0346FB71022068
:102D800007F0B4FFF860FB799BB20220194607F008
:102D9000EDFE00BFFB68DB6A03F40033002BF9D0C3
:102DA00007F10A030220194607F010FF7B89DBB206
:102DB00018461037BD4680BDB0B58AB004AF324A60
:102DC00007F110031068516803C32F4A07F1080385
:102DD0001068516803C300237B602C4B2C4A1A6097
:102DE0002C48002104220AF0EAFE2B48002104228C
:102DF0000AF0E5FE2948002104220AF0E0FE00F076
:102E00004FFB274800F088FC3B1D184600F076FC7D
:102E10003B1D184600F064FC3B1D184600F08AFC80
:102E2000204B1B681B7819461E4B1B6801331B780F
:102E30001A461C4B1B6802331B781A480068033083
:102E400000780546174800680430007804461548A5
:102E5000006805300078009501940290124801F056
:102E600085FD07F1100207F108031046194600F02E
:102E70001DFB0E4B00221A700D48002101F076FD5B
:102E80001837BD46B0BD00BF88E300001800FF1F23
:102E90007856341200FAFF1F5800FF1F5C00FF1F16
:102EA000040DFF1F1400FF1F4CE300006000FF1F14
:102EB00070E3000080B584B000AF78600323FB733B
:102EC0007B68002B2ED07B68DB68022B14D97B68D3
:102ED0005A687B68DB68013B13441B78542B0BD189
:102EE0007B685A687B68DB68023B13441B78552B70
:102EF00002D00023FB7315E07B68D9687B685A68B1
:102F00007B68DB68013B13441B781A467B68586872
:102F10007B68DB68023B03441B78054801F026FD13
:102F20000123FB73FB7B18461037BD4680BD00BFF5
:102F300090E3000080B58CB000AF0346FB71002326
:102F4000BB62002387F82F30FB79184600F066FC3F
:102F50000346BB85BB8D002B00F09480BA8D40F2F8
:102F60004C439A4205D807F128034848194601F016
:102F70000DFEBB6A002B05D107F128034448194612
:102F800001F004FEBB6A002B64D0BB6A9A68BB8D5B
:102F90009A425FD3BB6ABA8DDA60BB6A00221A74A8
:102FA000BB6A5A68F979BB8D084611461A4600F08B
:102FB0002BF9BB6A1846FFF77DFF0346002B0BD1A8
:102FC000BB6ABA8DDA60BB6A3248194601F008FE66
:102FD000012387F82F300FE0BB6A9B68B3F5966F2B
:102FE00005D1BB6A2A48194601F0FAFD04E0BB6A24
:102FF0002648194601F0F4FD53233B7500237B75E9
:103000000A23BB750023FB7500233B76BB6A5B6814
:10301000053307F1140205321046194606220AF05C
:10302000C5FD0023FB7797F82F30002B01D0B1238B
:1030300000E0B22387F82030002387F821305423A2
:1030400087F8223007F11403012019460F2200F0FF
:1030500049F817E0BB8D1048194601F087FCBB6AA0
:10306000002B0FD0BB6A9B68B3F5966F05D1BB6A86
:103070000748194601F0B4FD04E0BB6A034819464D
:1030800001F0AEFD3037BD4680BD00BFEC0DFF1F27
:1030900004EBFF1FFCEAFF1FDCE3000080B582B0F9
:1030A00000AF0346FB71FB795B0103F5847318469F
:1030B000102100F003F900BFFB795B0103F5847375
:1030C000184600F02BF90346002BF5D1FB795B0184
:1030D00003F502731846FF2100F0F0F80837BD46EB
:1030E00080BD00BF80B584B000AF39601346024692
:1030F000FA71BB8000237B730023FB8100237B815B
:10310000FB79184600F0AEF80346BA889A4206D911
:10311000FB79184600F0A6F80346FB8101E0BB8866
:10312000FB81FB79184600F033FB03467B81FB797A
:103130005B0103F54273184600F0F0F803467B7319
:103140007B7B172B05D07B7B1C2B02D00023FB81C4
:1031500003E07A89FB899A42E3D3FA79FB89104626
:1031600039681A4600F0A0FBFB795B0103F5847314
:103170001846202100F0A2F800BFFB795B0103F59F
:103180008473184600F0CAF80346002BF5D117E007
:10319000FB795B0103F54273184600F0BFF8034664
:1031A0007B737B7B172B0BD07B7B1C2B08D01548AC
:1031B00001F0DCFBFB791846FFF770FF00231CE0F1
:1031C000FB795B0103F50273184600F0A7F803468C
:1031D00003F01003002BDBD0FB795B0103F50273D6
:1031E0001846102100F06AF8FB795B0103F50273C1
:1031F0001846102100F062F8FB8918461037BD46CA
:1032000080BD00BF08E4000080B584B000AF396025
:1032100013460246FA71BB800023FB81BB88002B5A
:103220001BD0FA79BB88104639681A4600F09AFB21
:10323000FB795B0103F584731846402100F03EF8EA
:1032400000BFFB795B0103F58473184600F066F854
:103250000346002BF5D1BB88FB81FB89184610374C
:10326000BD4680BD80B483B000AF0346FB71FA79E0
:10327000044B33F8123018460C37BD465DF8047B1A
:10328000704700BF6400FF1F80B500AF0020FFF74C
:1032900057FD80BD80B500AF0120FFF751FD80BD17
:1032A00080B582B000AF0346FB71FB791846FFF78B
:1032B00061FD034618460837BD4680BD80B582B023
:1032C00000AF78600B46FB70FFF7DEFF7B6803F40E
:1032D0007F031B0C9BB20220194607F047FC7B685A
:1032E00003F47F431B0A9BB20220194607F03EFC01
:1032F0007B689BB203F0F8039BB204339BB20220BD
:10330000194607F033FCFB789BB20220194607F000
:103310002DFCFFF7BFFF0837BD4680BD80B584B0E8
:1033200000AF78600023FB73FFF7AEFF7B6803F408
:103330007F031B0C9BB20220194607F017FC7B6829
:1033400003F47F431B0A9BB20220194607F00EFCD0
:103350007B689BB203F0F8039BB20220194607F08A
:1033600005FC0020FFF79CFF0346FB73FFF792FF6D
:10337000FB7B18461037BD4680BD00BF80B586B0C8
:1033800000AFF860B9601346FB800023FB82FB8826
:10339000002B02D11D4801F0E9FAFFF775FFFB6829
:1033A00003F47F031B0C9BB20220194607F0DEFBDF
:1033B000FB6803F47F431B0A9BB20220194607F007
:1033C000D5FBFB689BB203F0F8039BB204339BB2BE
:1033D0000220194607F0CAFB0023FB820AE0FB8AA1
:1033E000BA6813441B780220194607F0BFFBFB8A1A
:1033F0000133FB82FA8AFB889A42F0D3FFF74AFF37
:10340000FB8818461837BD4680BD00BF34E4000075
:1034100090B587B000AFF860B9601346FB80002319
:10342000FB82FB88002B02D11C4801F09FFAFFF7BA
:103430002BFFFB6803F47F031B0C9BB20220194691
:1034400007F094FBFB6803F47F431B0A9BB2022046
:10345000194607F08BFBFB689BB203F0F8039BB2A5
:103460000220194607F082FB0023FB820AE0FB8A58
:10347000BA68D4180020FFF713FF03462370FB8AB5
:103480000133FB82FA8AFB889A42F0D3FFF702FFEE
:10349000FB8818461C37BD4690BD00BF34E40000D1
:1034A00080B500AF802000F053F980BD80B584B0B6
:1034B00000AF786039600023BB8100237B8100234B
:1034C000FB8100E1B7F90E305B0103F5F8530833D7
:1034D0001A46B7F90E3079680B441B781046194626
:1034E000FFF7ECFEB7F90E305B0103F5F05308333C
:1034F0001A46B7F90E3039680B441B781046194646
:10350000FFF7DCFEB7F90E20734B002123F81210F1
:10351000B7F90E20714B002123F81210B7F90C30C7
:10352000B3F5804F5ADCB7F90E307A6813441B7834
:10353000013B0F2B4AD801A252F823F07D35000041
:103540008D350000CD3500009D350000CD350000E3
:10355000CD350000CD350000AD350000CD35000083
:10356000CD350000CD350000CD350000CD35000053
:10357000CD350000CD350000BD350000B7F90E2077
:10358000554B4FF4806123F8121027E0B7F90E2055
:10359000514B4FF4006123F812101FE0B7F90E20D1
:1035A0004D4B4FF4805123F8121017E0B7F90E205D
:1035B000494B4FF4005123F812100FE0B7F90E20D9
:1035C000454B4FF4804123F8121007E0B7F90E2065
:1035D000424B4FF4006123F8121000BFB7F90A30D4
:1035E000B3F5804F5ADCB7F90E303A6813441B78B4
:1035F000013B0F2B4AD801A252F823F03D360000C0
:103600004D3600008D3600005D3600008D3600001E
:103610008D3600008D3600006D3600008D360000BE
:103620008D3600008D3600008D3600008D3600008E
:103630008D3600008D3600007D360000B7F90E2073
:10364000264B4FF4806123F8121027E0B7F90E20C3
:10365000224B4FF4006123F812101FE0B7F90E203F
:103660001E4B4FF4805123F8121017E0B7F90E20CB
:103670001A4B4FF4005123F812100FE0B7F90E2047
:10368000164B4FF4804123F8121007E0B7F90E20D3
:10369000124B4FF4006123F8121000BFB7F90E204F
:1036A0000D4B33F81220BB8913449BB2BB81B7F991
:1036B0000E200A4B33F812207B8913449BB27B8186
:1036C000FB890133FB81B7F90E30072B7FF7FAAE88
:1036D0001037BD4680BD00BF6400FF1F7400FF1F90
:1036E00080B582B000AF78604FF4807079680422B2
:1036F000FFF744FE0837BD4680BD00BF80B582B0ED
:1037000000AF78604FF4A06079680422FFF736FEBE
:103710000837BD4680BD00BF80B582B000AF78607D
:103720004FF4106079680622FFF728FE0837BD467F
:1037300080BD00BF80B582B000AF78604FF470608C
:1037400079680422FFF71AFE0837BD4680BD00BF26
:1037500080B582B000AF0346FB71FB7900201946AB
:10376000FFF7ACFD0837BD4680BD00BF80B582B015
:1037700000AF0346FB71FB795B0103F5027318464A
:10378000FFF7CCFD034618460837BD4680BD00BF95
:1037900090B585B000AF0346FB710023FB81002389
:1037A000BB81FB795B0103F5005308331846FFF733
:1037B000B5FD0346BB81BB891B029CB2FB795B0153
:1037C00003F5045308331846FFF7A8FD03462344C6
:1037D000BB81BB89002B17D0FB795B0103F500533C
:1037E00008331846FFF79AFD0346FB81FB891B024D
:1037F0009CB2FB795B0103F5045308331846FFF7CD
:103800008DFD03462344FB81FA89BB899A42C8D1C6
:10381000FB8918461437BD4690BD00BF90B585B0F2
:1038200000AF0346FB710023FB810023BB81FB79C2
:103830005B0103F5185308331846FFF76FFD034685
:10384000BB81BB891B029CB2FB795B0103F51C5356
:1038500008331846FFF762FD03462344BB81BB894A
:10386000002B17D0FB795B0103F51853083318467A
:10387000FFF754FD0346FB81FB891B029CB2FB79D9
:103880005B0103F51C5308331846FFF747FD034659
:103890002344FB81FA89BB899A42C8D1FB89184627
:1038A0001437BD4690BD00BF90B585B000AF3960FC
:1038B00013460246FA71BB80BB88002B05D1FB7909
:1038C0002748194601F052F846E00023FB81002307
:1038D000BB60FB795B0103F5105308331846FFF713
:1038E0001DFD0346FB81FB891B029CB2FB795B013A
:1038F00003F5145308331846FFF710FD034623441D
:10390000FB81FB891A02FB795B0113441033BB6016
:10391000BB88B86839681A46FFF730FDFA89BB885A
:103920001344FB81FB795B0103F5105308331A46FE
:10393000FB891B0A9BB2DBB210461946FFF7BEFC9F
:10394000FB795B0103F5145308331A46FB89DBB29C
:1039500010461946FFF7B2FC1437BD4690BD00BFB4
:103960004CE4000090B585B000AF396013460246C4
:10397000FA71BB800023FB810023BB60BB88002B56
:1039800005D1FB792548194600F0F0FF42E0FB79AC
:103990005B0103F5205308331846FFF7BFFC0346CD
:1039A000FB81FB891B029CB2FB795B0103F524536D
:1039B00008331846FFF7B2FC03462344FB81FB891A
:1039C0001A02FB795B0113441833BB60BB88B868EB
:1039D00039681A46FFF71CFDFA89BB881344FB813E
:1039E000FB795B0103F5205308331A46FB891B0A58
:1039F0009BB2DBB210461946FFF760FCFB795B0116
:103A000003F5245308331A46FB89DBB210461946E6
:103A1000FFF754FC1437BD4690BD00BF6CE40000B6
:103A200080B582B000AF02460B46FA71BB71FB79DC
:103A30005B0103F502731A46BB7910461946FFF77E
:103A40003DFC0837BD4680BD80B582B000AF03465F
:103A5000FB71FB790420194606F0CAFE0837BD4603
:103A600080BD00BF80B584B000AFF860B9607A60F7
:103A70007B681B68012B02D0022B08D012E07B6808
:103A80005B68FA68D2B252B2104698470AE07B6887
:103A90009B68FA68D2B21A707B689B685A1C7B6874
:103AA0009A6000BFBB681B685A1CBB681A6010375D
:103AB000BD4680BD00000000B0B5A6B000AFF86004
:103AC000B9607A6007F15C0300221A6004330022B7
:103AD0001A60043300221A60043300221A6004338F
:103AE00000221A60043307F110024C231046002113
:103AF0001A460AF064F80023C7F894304FF0000229
:103B00004FF00003C7E92023FB68D3E900231046E8
:103B10001946FDF715F90346C7F89430FB68D3E959
:103B20000045D7F89400FCF7FBFD02460B46204603
:103B30002946FCF7B7FC02460B46C7E91E237B6803
:103B4000002B20D1FB68D3E90045D7F89400FCF79F
:103B5000E7FD02460B4620462946FCF7A3FC024639
:103B60000B46104619469FA3D3E90023FCF74EFEEF
:103B700002460B4610461946FDF718F902460B4659
:103B8000C7E9202318E00AE0D7E91E014FF0000240
:103B9000914BFCF73BFE02460B46C7E91E237B68B0
:103BA0005A1E7A60002BEFD1D7E91E01FDF7FEF80F
:103BB00002460B46C7E92023FB68D3E90045D7F846
:103BC0009400FCF7ADFD02460B4620462946FCF763
:103BD00069FC02460B46C7E91C230023C7F888305E
:103BE0000FE0D7E91C014FF000027B4BFCF70EFE03
:103BF00002460B46C7E91C23D7F888300133C7F8C3
:103C00008830D7E91C014FF00002744BFDF770F8C3
:103C10000346002BE5D1D7F88830013BC7F8883040
:103C20000023C7F89030D7F89430002B09D1D7F88B
:103C300090305A1CC7F89020BA68134430221A708A
:103C400044E00023C7F88C301DE0D7F88C104B1CE3
:103C5000C7F88C30D7F89400614BA3FB0023DA0837
:103C600013469B0013445B00C21A8B0007F19801B6
:103C70000B4443F83C2CD7F89420594BA3FB021378
:103C8000DB08C7F89430D7F89430002BDDD119E069
:103C9000D7F890305A1CC7F89020BA681A44D7F861
:103CA0008C30013B9B0007F198010B4453F83C3CDE
:103CB000DBB23033DBB2DBB21370D7F88C30013BB0
:103CC000C7F88C30D7F88C30002BE1D1D7F8903082
:103CD0005A1CC7F89020BA6813442E221A70D7E9EC
:103CE000202352EA030109D1D7F890305A1CC7F8B3
:103CF0009020BA68134430221A7060E00023C7F89D
:103D00008C3022E0D7F88C40631CC7F88C30D7E9A0
:103D10002023104619464FF00A024FF00003FDF72A
:103D20002FF8A30007F198010B4443F8882CD7E93A
:103D30002023104619464FF00A024FF00003FDF70A
:103D40001FF802460B46C7E92023D7E9202352EA91
:103D50000301D7D110E0D7F88C305A1CC7F88C205B
:103D60009B0007F198021344002243F8882CD7F8EF
:103D70008830013BC7F88830D7F88830002BEAD16B
:103D800019E0D7F890305A1CC7F89020BA681A4446
:103D9000D7F88C30013B9B0007F198010B4453F896
:103DA000883CDBB23033DBB2DBB21370D7F88C3037
:103DB000013BC7F88C30D7F88C30002BE1D1BA68C2
:103DC000D7F89030134400221A70D7F89030184674
:103DD0009837BD46B0BD00BF000024400000F03F52
:103DE000CDCCCCCC00A0D88557347643AFF300803F
:103DF00080B48DB000AFF860B9607A603B6000239A
:103E0000FB61FB68BB61BB695A1CBA6100221A7076
:103E10007B68002B33D0BB681B68FB62FB6A002BFE
:103E200006D1BB6930221A70FB690133FB6158E08F
:103E300021E0FA6A3B6892FBF3F37B617B693A68A5
:103E400002FB03F3FA6AD31ABB62BB6A002B04DAE3
:103E5000BB6AC3F13003BB6202E0BB6A3033BB62B2
:103E60007B69FB62BB695A1CBA61BA6AD2B21A702A
:103E7000FB690133FB61FB6A002BDAD131E0BB68DF
:103E80001B687B627B6A002B06D1BB6930221A70EB
:103E9000FB690133FB6124E020E03B687A6AB2FBF6
:103EA000F3F33B613B683A6902FB03F37A6AD31A86
:103EB0003B623B6A092B03D83B6A30333B6202E02A
:103EC0003B6A37333B623B697B62BB695A1CBA6110
:103ED0003A6AD2B21A70FB690133FB617B6A002B2C
:103EE000DBD1FB6918463437BD465DF8047B70476B
:103EF00080B586B000AFF860B9607A603B60FB685F
:103F00007B6107E0302079683A68FFF7ABFD7B6999
:103F100001337B617A69BB689A42F3DB1837BD468F
:103F200080BD00BF80B586B000AFF860B9607A6030
:103F30003B60FB687B6107E0202079683A68FFF707
:103F400091FD7B6901337B617A69BB689A42F3DB3F
:103F50001837BD4680BD00BF80B5A6B000AFF86081
:103F6000B9607A6007F12C0300221A600433002242
:103F70001A60043300221A60043300221A600433EA
:103F800000221A60043300221A60043300221A60EF
:103F9000043300221A60043300221A7001333023E4
:103FA00087F82C300023BB620023FB670123BB672B
:103FB000BB68C7F8943000F0CBBC7B6E252B1BD0C0
:103FC0007B6E0A2B08D007F12803786E1946FA6831
:103FD000FFF748FD00F0B7BC07F128030D20194694
:103FE000FA68FFF73FFD07F128030A201946FA682F
:103FF000FFF738FD00F0A7BC0023C7F8843000238A
:10400000C7F888305CE0D7F894300133C7F89430B3
:10401000D7F894301B785BB2203B102B47D801A215
:1040200052F823F085400000AF400000AF40000090
:10403000A1400000AF400000AF400000AF400000D2
:10404000AF400000AF400000AF400000AF400000B4
:1040500077400000AF40000069400000AF40000022
:10406000AF40000093400000D7F8843043F00103D4
:10407000C7F8843024E0D7F8843043F00203C7F84F
:1040800084301DE0D7F8843043F00403C7F884304F
:1040900016E0D7F8843043F00803C7F884300FE007
:1040A000D7F8843043F01003C7F8843008E0D7F81D
:1040B0009430013BC7F894300123C7F8883000BF23
:1040C000D7F88830002B9ED00023C7F8803000231B
:1040D000C7F8883023E0D7F894300133C7F894301C
:1040E000D7F894301B785BB27B667B6E303B092B34
:1040F0000CD8D7F8802013469B0013445B001A4667
:104100007B6E303B1344C7F8803008E0D7F894301A
:10411000013BC7F894300123C7F8883000BFD7F8B7
:104120008830002BD7D0D7F894300133C7F89430BB
:10413000D7F894301B785BB22E2B2CD100237B67F1
:104140000023C7F8883021E0D7F894300133C7F84E
:104150009430D7F894301B785BB27B667B6E303B33
:10416000092B0AD87A6F13469B0013445B001A464A
:104170007B6E303B13447B6708E0D7F89430013BFB
:10418000C7F894300123C7F8883000BFD7F88830CB
:10419000002BD9D008E0D7F89430013BC7F8943011
:1041A0000023BB6700237B67D7F894300133C7F83F
:1041B0009430D7F894301B785BB2682B14D06C2BFA
:1041C00002D04C2B05D009E0FB6F43F00103FB67E5
:1041D0000BE0FB6F43F00203FB6706E0D7F8943077
:1041E000013BC7F8943000E000BFD7F894300133AA
:1041F000C7F89430D7F894301B785BB27B667B6E3F
:10420000583B202B00F2978301A252F823F000BF05
:10421000CB4500003749000037490000374900000E
:10422000374900003749000037490000374900008E
:1042300037490000374900001F4700003B48000095
:104240009542000037490000B7430000374900009D
:104250003749000095420000374900003749000007
:10426000374900003749000021490000F7460000A7
:104270004747000037490000374900005D4800000B
:10428000374900006F4700003749000037490000F8
:10429000CB4500007B6804337B607B68043B1B6874
:1042A0007B6207F12C0207F1240310461946012214
:1042B0000A23FFF79DFDC7F88C0007F12C02D7F801
:1042C0008C301344C7F890307B6A002B07DA2D231B
:1042D0003B67D7F88C300133C7F88C301DE0D7F836
:1042E000843003F00203002B07D02B233B67D7F861
:1042F0008C300133C7F88C300FE0D7F8843003F0EE
:104300000403002B07D020233B67D7F88C30013300
:10431000C7F88C3001E000233B670023FB66D7F829
:10432000843003F00803002B1AD03B6F002B06D01B
:1043300007F12803386F1946FA68FFF793FB01234A
:10434000FB6607F12803D7F88C00D7F880101A46CF
:10435000FB68FFF7CDFDD7F88030C7F88C301BE045
:10436000D7F8843003F00103002B15D107F128039F
:10437000D7F88C00D7F880101A46FB68FFF7D2FDFB
:104380003B6F002B06D007F12803386F1946FA68F7
:10439000FFF768FB0123FB66FB6E002B0AD13B6F26
:1043A000002B07D007F12803386F1946FA68FFF78A
:1043B00059FB1CE21BE2FB6F002B19D17B68083311
:1043C0007B607B68083BD3E90023C7E9142397F897
:1043D000573087F863303B6D7B6500233B6597F86A
:1043E000633087F85330D7E91423C7E9062311E077
:1043F000FB6F012B02D0FB6F022B0BD17B680433C8
:104400007B607B6808337B607B68083BD3E90023D3
:10441000C7E90623BB6F002B0FD007F1180207F185
:104420002C03104619467A6FFFF746FBC7F88C003D
:1044300007F12C03C7F8903021E0FB6F002B0FD160
:1044400007F1180207F12C03104619460822FFF75E
:1044500033FBC7F88C0007F12C03C7F890300EE04F
:1044600007F1180207F12C03104619467A6FFFF77F
:1044700023FBC7F88C0007F12C03C7F89030D7E96D
:104480000623104619464FF000024FF00003FCF7D8
:104490002FFC0346002B07D02D233B67D7F88C3029
:1044A0000133C7F88C301DE0D7F8843003F00203E5
:1044B000002B07D02B233B67D7F88C300133C7F88C
:1044C0008C300FE0D7F8843003F00403002B07D0C2
:1044D00020233B67D7F88C300133C7F88C3001E0DC
:1044E00000233B670023FB66D7F8843003F0080302
:1044F000002B1AD03B6F002B06D007F12803386F32
:104500001946FA68FFF7AEFA0123FB6607F12803A4
:10451000D7F88C00D7F880101A46FB68FFF7E8FC44
:10452000D7F88030C7F88C301BE0D7F8843003F020
:104530000103002B15D107F12803D7F88C00D7F819
:1045400080101A46FB68FFF7EDFC3B6F002B06D08E
:1045500007F12803386F1946FA68FFF783FA012339
:10456000FB66FB6E002B0AD13B6F002B07D007F1D7
:104570002803386F1946FA68FFF774FA0EE00DE069
:10458000D7F890305A1CC7F890201B785AB207F120
:10459000280310461946FA68FFF764FAD7F89030F6
:1045A0001B78002BECD1D7F8843003F00103002BEB
:1045B0000AD007F12803D7F88C00D7F880101A46E4
:1045C000FB68FFF7AFFCBEE1BDE17B6804337B60B5
:1045D0007B68043B1B687B6107F12C0207F1140325
:1045E0001046194600221023FFF702FCC7F88C0082
:1045F00007F12C02D7F88C301344C7F89030002311
:10460000FB66D7F8843003F00803002B24D0D7F8DA
:10461000843003F01003002B0FD007F12803302063
:104620001946FA68FFF71EFA07F1280378201946A1
:10463000FA68FFF717FA0123FB6607F12803D7F89A
:104640008C00D7F880101A46FB68FFF751FCD7F8AA
:104650008030C7F88C3030E0D7F8843003F00103A5
:10466000002B2AD1D7F8843003F01003002B04D09C
:10467000D7F88C300233C7F88C3007F12803D7F80D
:104680008C00D7F880101A46FB68FFF74BFCD7F870
:10469000843003F01003002B0FD007F128033020E3
:1046A0001946FA68FFF7DEF907F128037820194662
:1046B000FA68FFF7D7F90123FB66D7F8843003F0D7
:1046C0001003002B16D0FB6E002B13D107F128032B
:1046D00030201946FA68FFF7C5F907F1280378205A
:1046E0001946FA68FFF7BEF9D7F88C300233C7F8DD
:1046F0008C307CE07BE07B6804337B607B68043B30
:104700001B687B6107F12C0207F114031046194660
:1047100000220823FFF76CFBC7F88C003AE07B68A7
:1047200004337B607B68043B1B687B6107F12C02D0
:1047300007F114031046194600220223FFF758FB25
:10474000C7F88C0026E07B6804337B607B68043B01
:104750001B687B6107F12C0207F114031046194610
:1047600000221023FFF744FBC7F88C0012E07B689F
:1047700004337B607B68043B1B687B6107F12C0280
:1047800007F114031046194600220A23FFF730FBF5
:10479000C7F88C0007F12C02D7F88C301344C7F807
:1047A0009030D7F8843003F00803002B0ED007F1C7
:1047B0002803D7F88C00D7F880101A46FB68FFF75B
:1047C00097FBD7F88030C7F88C3010E0D7F88430EA
:1047D00003F00103002B0AD107F12803D7F88C005E
:1047E000D7F880101A46FB68FFF79CFB0EE00DE03F
:1047F000D7F890305A1EC7F890201B785AB207F1AC
:10480000280310461946FA68FFF72CF9D7F89030BC
:104810001B78002BECD1D7F8843003F00103002B78
:104820000AD007F12803D7F88C00D7F880101A4671
:10483000FB68FFF777FB86E085E07B6804337B60ED
:104840007B68043B1B68DBB25BB2FB6507F12803A6
:10485000F86D1946FA68FFF705F974E07B680433D0
:104860007B607B68043B1B68BB66BB6E002B56D02D
:10487000B86E09F0ACF90346C7F88C30D7F884302D
:1048800003F00103002B09D107F12803D7F88C00AE
:10489000D7F880101A46FB68FFF744FB7B6F002BAC
:1048A0001BD015E07B6F002B0FD07B6F013B7B672C
:1048B000BB6E5A1CBA661B785AB207F12803104621
:1048C0001946FA68FFF7CEF802E0BB6E0133BB660B
:1048D000BB6E1B78002BE5D110E00BE0BB6E5A1CC1
:1048E000BA661B785AB207F1280310461946FA68CF
:1048F000FFF7B8F8BB6E1B78002BEFD1D7F88430E8
:1049000003F00103002B0AD007F12803D7F88C002D
:10491000D7F880101A46FB68FFF704FB13E012E09B
:104920007B6804337B607B68043B1B68BB65BA6AA9
:10493000BB6D1A6007E007F12803786E1946FA6824
:10494000FFF790F800BFD7F894300133C7F89430E0
:10495000D7F894301B785BB27B667B6E002B7FF4BC
:104960002CABBB6A18469837BD4680BD0FB480B5E6
:1049700086B000AF01237B600B4BBB6007F12403C3
:104980007B613B6A3A1D104619467A69FFF7E4FAE3
:10499000386100237B613B6918461837BD46BDE886
:1049A000804004B0704700BF493A000080B485B031
:1049B00000AF78600023FB600CE00023BB6003E0E5
:1049C00000BFBB680133BB60BB68082BF8D9FB682C
:1049D0000133FB60FA687B689A42EED31437BD4618
:1049E0005DF8047B704700BF80B588B000AF786089
:1049F00039600023FB773A68134BA3FB02139B0833
:104A0000BB6107F10C03184608F0ACFDFA687B683F
:104A10009A420BD27B68DB437B60FA687B681A445E
:104A2000BB699A420AD30123FB7707E07A68BB6926
:104A30001A44FB689A4201D80123FB77FB7F184692
:104A40002037BD4680BD00BFCDCCCCCC80B485B076
:104A500000AFF860B9607A607B68FA685A60FB68FA
:104A60007A681A60FB68BA685A60BB68FA681A60AC
:104A70001437BD465DF8047B704700BF80B582B037
:104A800000AF786039603B685B68786819463A68BF
:104A9000FFF7DCFF0837BD4680BD00BF80B483B0A0
:104AA00000AF786039603B687A685A607B683A6822
:104AB0001A600C37BD465DF8047B704780B582B044
:104AC00000AF78607B685A687B681B68104619469F
:104AD000FFF7E4FF7B68044A1A607B68034A5A6068
:104AE0000837BD4680BD00BF000110000002200055
:104AF00080B483B000AF78607B681A687B689A42A4
:104B000014BF00230123DBB218460C37BD465DF805
:104B1000047B704780B586B000AFF860B9607A60FA
:104B20003B60FB68002B08D0BB68002B05D07B687E
:104B3000002B02D03B68002B01D1012322E0FB684F
:104B4000FA681A60FB68FA685A60BB68BA681A604B
:104B5000BB68BA685A6000237B610EE07A6913462D
:104B6000DB009B1A9B007A68134414331846B9681B
:104B7000FFF784FF7B6901337B617A693B689A4266
:104B8000ECD3002318461837BD4680BD80B584B0ED
:104B900000AF786039600023FB600023BB607B6856
:104BA000002B05D07868FFF7A3FF0346002B01D048
:104BB000022311E07B681B68FB60F868FFF77EFF4B
:104BC000FB68143BBB60BB68002B01D1022303E0F0
:104BD0003B68BA681A60002318461037BD4680BD8E
:104BE00080B582B000AF786039607B68002B02D05E
:104BF0003B68002B01D1032306E03B6814331846C1
:104C00007968FFF73BFF002318460837BD4680BD93
:104C100080B582B000AF02460B46FA807B71FA88FD
:104C20007B79104601211A4606F022FE0837BD4660
:104C300080BD00BF80B582B000AF0346FB80FB881B
:104C4000184606F0A5FE0837BD4680BD80B582B087
:104C500000AF0023FB710023BB71084B00221A71C7
:104C6000064B00221A60002005F000F90346FB7194
:104C7000BB7918460837BD4680BD00BF0CFAFF1F40
:104C800080B582B000AF78603960184B1B683A6815
:104C90009A4217D1164B1A79164B1B789A420AD1B1
:104CA000134B1A687B689A4205D1114B1B68002B85
:104CB00001D0002316E00F4B1A780D4B1A710C4BE4
:104CC0007A681A600B4B1B78002B0AD100BF0020BA
:104CD00039687A68012305F011FA0346002BF6D1F2
:104CE00000BF002318460837BD4680BD1C00FF1FCB
:104CF0000CFAFF1F8700FF1F80B582B000AF7860FD
:104D00003960104B1B683A689A4206D10E4B1A78EC
:104D10000E4B1A710D4B7A681A600B4B1B78002BE7
:104D20000AD100BF002039687A68012305F05AFAD9
:104D30000346002BF6D100BF002318460837BD46B6
:104D400080BD00BF1C00FF1F8700FF1F0CFAFF1F64
:104D500080B586B000AFF860B9607A6000237B61EF
:104D6000FB68002B01D1002320E0124B1B78002BA5
:104D70001BD100237B6113E000BFBA687B69134439
:104D8000002079681A46012305F0B8F90346002B84
:104D9000F3D17B6803F500737B607B6901337B6132
:104DA0007A69FB689A42E7D300BF00231846183798
:104DB000BD4680BD8700FF1F80B586B000AFF8609C
:104DC000B9607A6000237B61FB68002B01D100236E
:104DD00020E0124B1B78002B1BD100237B6113E0DA
:104DE00000BFBA687B691344002079681A46012322
:104DF00005F0F8F90346002BF3D17B6803F5007347
:104E00007B607B6901337B617A69FB689A42E7D3F7
:104E100000BF002318461837BD4680BD8700FF1F1E
:104E200080B584B000AF786039600023FB60002358
:104E3000FB6008E01B4B1A68FB68134400221A70E1
:104E4000FB680133FB60FB68B3F5007FF2D3164BC0
:104E50001B78002B16D10023FB600EE000BF114B26
:104E60001B68002019463A68012305F0BBF9034688
:104E7000002BF4D1FB680133FB60FA687B689A422F
:104E8000ECD300BF084B1A78084B1A713A687B685C
:104E900013445A1E054B1A60002318461037BD46AE
:104EA00080BD00BF1C00FF1F8700FF1F0CFAFF1F03
:104EB00080B487B000AFF860B9601346FB7100237F
:104EC0007B6100237B6107E0FA687B691344FA7910
:104ED0001A707B6901337B617A69BB689A42F3D3AC
:104EE000002318461C37BD465DF8047B704700BFA1
:104EF00080B487B000AFF860B9607A6000237B614E
:104F000000237B610EE0FA687B6913441A78B96864
:104F10007B690B441B789A4201D0002307E07B6930
:104F200001337B617A697B689A42ECD3012318468E
:104F30001C37BD465DF8047B704700BF80B487B066
:104F400000AFF860B9607A6000237B6100237B6169
:104F50000AE0FA687B691344B9687A690A441278EE
:104F60001A707B6901337B617A697B689A42F0D35E
:104F7000FB6818461C37BD465DF8047B704700BFD0
:104F800080B485B000AF786039600023FB730AE01D
:104F9000FB7B7A681344FA7B39680A4412781A70EA
:104FA000FB7B0133FB73FB7B3A6813441B78002BBC
:104FB000EED1FB7B7A68134400221A707B68184696
:104FC0001437BD465DF8047B704700BF80B485B0E0
:104FD00000AF78600023FB6002E0FB680133FB60F8
:104FE0007A68FB6813441B78002BF6D1FB681846DF
:104FF0001437BD465DF8047B704700BF80B485B0B0
:1050000000AF78600023FB6002E0FB680133FB60C7
:10501000FB685B007A6813441B88002BF5D1FB68A2
:1050200018461437BD465DF8047B704780B483B0E2
:1050300000AF78607B681B8818460C37BD465DF86A
:10504000047B704780B483B000AF03463960FB71C6
:10505000064B3A681A60064BFA791A700023184614
:105060000C37BD465DF8047B704700BF40FAFF1F58
:105070008700FF1F80B485B000AF78600B46FB70DF
:105080000023FB60FB78002B04D07B681B78FA6858
:105090001343FB60FB78012B06D97B6801331B7837
:1050A0001B02FA681343FB60FB78022B06D97B686E
:1050B00002331B781B04FA681343FB60FB78032B55
:1050C00006D97B6803331B781B06FA681343FB6021
:1050D000FB6818461437BD465DF8047B704700BF77
:1050E00080B586B000AF786000237B61214A07F16C
:1050F0000C0310681860204A07F108031068186054
:105100001E4B1B681B6801337B6128E01C4B1B682E
:1051100078691946FFF7B4FD194B1B683B613A6982
:1051200007F10C03104619460422FFF7E1FE03467F
:10513000002B11D03B6903F5F27207F1080310460A
:1051400019460422FFF7D4FE0346002B04D07B68E7
:105150007A691A60002309E07B6901337B61074BA0
:105160001B685A697B699A42D0D8012318461837C0
:10517000BD4680BD8CE4000090E4000040FAFF1FB3
:105180001C00FF1F80B586B000AF786000237B61F4
:105190000023FB7400237B613DE0244B1B685A69AC
:1051A0007B691A44224B1B6810461946FFF768FDBD
:1051B0001F4B1B68FB600023FB7425E0FA7CFB6837
:1051C00013F82230002B1CD1FB7CFA689B0013449F
:1051D0005B78002B15D1FB7CFA689B0013449B780D
:1051E000002B0ED1FB7CFA689B001344DB78002B6C
:1051F00007D17B69DA01FB7C1A447B681A600023C3
:1052000010E0FB7C0133FB74FB7C5BB2002BD5DA36
:105210007B6901337B61054B1B68DA687B699A42C5
:10522000BBD8012318461837BD4680BD40FAFF1F82
:105230001C00FF1F90B583B000AF654B1B680020BA
:105240001946FFF71DFD624B1B681B78EB2B0CD03A
:10525000604B1C685E4B1B6803F5E3731846042122
:10526000FFF708FF0346236003E05A4B1B68002248
:105270001A60584B1B681A68554B1B681046194634
:10528000FFF7FEFC524B1B687B607B6893F8523043
:10529000462B13D17B6893F85330412B0ED17B689A
:1052A00093F85430542B09D17B6893F85530332B45
:1052B00004D17B6893F85630322B01D0022382E070
:1052C000444B1C687B68243318460421FFF7D2FE48
:1052D0000346E3603F4B1C687B680B331846022192
:1052E000FFF7C8FE0346A3603A4B1B687A68527BFF
:1052F0001A61384B1C687B680E3318460221FFF791
:10530000B9FE0246334B1B681B6813446361314B83
:105310001B68304A126851697A68127C2D4800680F
:10532000C06800FB02F20A449A612A4B1C687B6841
:10533000203318460421FFF79DFE03465B08636097
:10534000244B1B681C331846FFF7CAFE0346002B8C
:1053500001D0012337E01F4B1B68DA691C4B1B6827
:1053600010461946FFF78CFC1A4B1C68184B1B683B
:1053700003F5F47318460421FFF77CFE034623620D
:10538000144B1B681B6AB3F1FF3F10D1114B1B6814
:10539000104A1268526851000E4A12689269891ABE
:1053A0000C4A12681269B1FBF2F2013A1A62094B17
:1053B0001B6824331846FFF7E5FE0346002B01D097
:1053C000012300E0002318460C37BD4690BD00BF06
:1053D0001C00FF1F40FAFF1F80B586B000AF786049
:1053E00000237B617B68DA090E4B1B685B69134401
:1053F0007B610D4B1B6878691946FFF741FC0A4B2E
:105400001B683B617B6803F07F039B003A69134490
:10541000FB60F8680421FFF72DFE03461846183795
:10542000BD4680BD40FAFF1F1C00FF1F80B58AB03B
:1054300000AF78603960634B1B681B69614A126872
:10544000926802FB03F3BB6100237B6100233B6195
:105450000023FB6000237B6200233B620023BB60D0
:105460000023FB61584B7A681A607B68DA693B68F5
:105470009A4203D97B68002283F82A207B68DA6A83
:105480003B689A4201D10023D3E17B68DA6A3B682A
:105490009A421BD97B689A697B681A627B681B6A8F
:1054A000023B484A1268126902FB03F2454B1B6833
:1054B0009B691A447B685A627B6800221A857B6864
:1054C0000022DA627B68002283F82A207B68DB6A8C
:1054D0003A68D31A7B627B68DA693B689A4209D8DA
:1054E0007B68DA697B68DB6AD31A7B627B6801229E
:1054F00083F82A207B68DB6ABA69B3FBF2F2B969E8
:1055000001FB02F29B1A002B00F029812D4B1B6836
:105510009A687B681B8DD21A7B6A9A4256D3294BB4
:105520001B689A687B681B8DD21A7B6A9A4239D1B4
:105530007B685A6A7B681B6A023B224909680969D1
:1055400001FB03F11F4B1B689B690B44D21A1D4BD7
:105550001B681B69013B9A421BD17B6893F82A3078
:10556000002B07D17B681B6A1846FFF735FF024600
:105570007B681A627B681B6A023B124A12681269D6
:1055800002FB03F20F4B1B689B691A447B685A624B
:1055900004E07B685B6A5A1C7B685A627B68002265
:1055A0001A8507E07B681A8D7B6A9BB213449AB216
:1055B0007B681A857B68DA6A7B6A1A447B68DA62E0
:1055C000002336E140FAFF1F8800FF1F6B4B1B686A
:1055D0009A687B681B8DD31A7B61FA697B691344D7
:1055E000FB617B685A6A7B681B6A023B63490968F6
:1055F000096901FB03F1614B1B689B690B44D21ADB
:105600005E4B1B681B69013B9A4200F08F807B68F0
:105610005B6A5A1C7B685A627B6800221A857A6A28
:10562000FB69D31AFB607B681B6A023B534A126812
:10563000126902FB03F2514B1B689B691A444F4BE2
:105640001B681B691A447B685B6AD31A4B4A126851
:10565000926802FB03F33B61FA683B699A4248D8BF
:10566000464B1B689B68FA68B2FBF3F37B61434BC4
:105670001B689B687A6902FB03F3FA691344FB61B8
:10568000FA683B699A421ED17B6893F82A30002B56
:1056900007D17B681B6A1846FFF79EFE02467B68AF
:1056A0001A627B681B6A023B344A1268126902FB69
:1056B00003F2324B1B689B691A447B685A627B6811
:1056C00000221A850DE07B685A6A7B691A447B6860
:1056D0005A627B6A9AB2FB699BB2D31A9AB27B6810
:1056E0001A857B68DA6A7B6A1A447B68DA6200236F
:1056F0009FE07B681B6A023B204A1268126902FB2A
:1057000003F21E4B1B689B691A441C4B1B681B69E8
:105710001A447B685B6AD31A7B61184B1B689B68D1
:105720007A6902FB03F3FA691344FB617B681B6A25
:105730001846FFF751FE02467B681A627B681B6AB7
:10574000023B0E4A1268126902FB03F20B4B1B6804
:105750009B691A447B685A627B6800221A857A6AC0
:10576000FB699A425ED07A6AFB69D21ABB69B2FBC6
:10577000F3F3BB6000233B621AE000BF40FAFF1F57
:10578000FA69BB691344FB617A6AFB699A4204D1E6
:105790007B6893F82A30002B07D17B681B6A184678
:1057A000FFF71AFE02467B681A623B6A01333B62CE
:1057B0003A6ABB689A42E3D37B681B6A023B1F4A82
:1057C0001268126902FB03F21C4B1B689B691A44A6
:1057D0007B685A627A6AFB699A4223D07A6AFB69CB
:1057E000D21A164B1B689B68B2FBF3F37B61134B19
:1057F0001B689B687A6902FB03F3FA691344FB6137
:105800007B685A6A7B691A447B685A627A6AFB69C8
:105810009A4207D07B6A9AB2FB699BB2D31A9AB2BA
:105820007B681A857B68DA6A7B6A1A447B68DA626D
:10583000002318462837BD4680BD00BF40FAFF1F31
:1058400080B58EB000AFF860B9607A603B6000232D
:105850007B6200237B6300233B6200233B630023C6
:10586000FB620023FB610023BB6100237B610023FB
:105870003B610023BB624F4BFA681A60F868B96855
:10588000FFF7D4FD7B68002B01D100233AE34A4B9C
:105890001B681B69484A1268926802FB03F37B622B
:1058A000FB68DA6A7B681A44FB68DB699A4209D3B1
:1058B000FB68DA69FB68DB6AD31A7B60FB6801224C
:1058C00083F82A20FB68DB6A7A6AB3FBF2F2796A12
:1058D00001FB02F29B1A002B00F06B81FB685A6AF5
:1058E000364B1B6810461946FFF7CAF9324B1B6846
:1058F0009A68FB681B8DD31AFB617A68FB699A4230
:105900005ED82E4B1A68FB681B8D13443868194605
:105910007A68FFF713FBFA697B689A4239D1FB6812
:105920005A6AFB681B6A023B23490968096901FB43
:1059300003F1214B1B689B690B44D21A1E4B1B6859
:105940001B69013B9A421BD1FB6893F82A30002B5C
:1059500007D1FB681B6A1846FFF73EFD0246FB684D
:105960001A62FB681B6A023B134A1268126902FB47
:1059700003F2114B1B689B691A44FB685A6204E0EE
:10598000FB685B6A5A1CFB685A62FB6800221A8536
:1059900007E0FB681A8D7B689BB213449AB2FB68E0
:1059A0001A85FB68DA6A7B681A44FB68DA627B68EE
:1059B000A8E200BF8800FF1F40FAFF1F1C00FF1F66
:1059C0008C4B1B689A68FB681B8DD31AFB618A4B52
:1059D0001A68FB681B8D134438681946FA69FFF78B
:1059E000ADFABA6AFB691344BB62FB685A6AFB688A
:1059F0001B6A023B7F490968096901FB03F17D4B82
:105A00001B689B690B44D21A7A4B1B681B69013BCC
:105A10009A4200F0B580FB685B6A5A1CFB685A62C8
:105A2000FB6800221A857A68BB6AD31A7B61FB681F
:105A30001B6A023B6F4A1268126902FB03F26D4B4C
:105A40001B689B691A446B4B1B681B691A44FB68F3
:105A50005B6AD31A674A1268926802FB03F3BB6160
:105A60007A69BB699A4264D8624B1B689B687A6901
:105A7000B2FBF3F3FB61FB685A6A3968BB6A0B44FB
:105A8000F86911461A46FFF763F95A4B1B689B6881
:105A9000FA6902FB03F3BA6A1344BB627A69BB6911
:105AA0009A421ED1FB6893F82A30002B07D1FB687D
:105AB0001B6A1846FFF790FC0246FB681A62FB68F7
:105AC0001B6A023B4B4A1268126902FB03F2494B04
:105AD0001B689B691A44FB685A62FB6800221A859E
:105AE0001FE0FB685A6AFB691A44FB685A627A68CD
:105AF000BB6AD31AFB61FB685A6A3F4B1B681046AE
:105B00001946FFF7BDF83A68BB6A1A443A4B1B685E
:105B100010461946FA69FFF711FAFB699AB2FB6859
:105B20001A85FB68DA6A7B681A44FB68DA627B686C
:105B3000E8E1FB681B6A023B2E4A1268126902FB0D
:105B400003F22C4B1B689B691A442A4B1B681B6988
:105B50001A44FB685B6AD31AFB61FB685A6A3968AE
:105B6000BB6A0B44F86911461A46FFF7F1F8214B5E
:105B70001B689B68FA6902FB03F3BA6A1344BB62B1
:105B8000FB681B6A1846FFF727FC0246FB681A628F
:105B9000FB681B6A023B174A1268126902FB03F298
:105BA000144B1B689B691A44FB685A62FB6800220D
:105BB0001A857A68BB6AD31ABB61BA697B6AB2FB81
:105BC000F3F33B613B69002B00F04881FB681B6AE3
:105BD000FB62FB6A3B6301237B633CE0F86AFFF7EF
:105BE000FBFB38623B6A5A1EFB6A9A4206D13B6A4B
:105BF000FB622DE040FAFF1F1C00FF1FFA6A3B6B9F
:105C0000D31A0133934A1268126902FB03F13B6B0A
:105C1000023B904A1268126902FB03F28D4B1B682B
:105C20009B691A443868BB6A0344084611461A4601
:105C3000FFF78EF8FA6A3B6BD31A01337A6A02FBDC
:105C400003F3BA6A1344BB623B6AFB62FB6A3B63C1
:105C50007B6B01337B637A6B3B699A42BED3BB6932
:105C60007A6AB3FBF2F2796A01FB02F29B1AFB61DA
:105C7000FB69002B00F0B580764B1B689B68FA69C6
:105C8000B2FBF3F3FB61F86AFFF7A6FB38623B6AED
:105C90005A1EFB6A9A4231D1FA6A3B6BD31A01331E
:105CA0006C4A1268126902FB03F2FB69D1183B6B64
:105CB000023B684A1268126902FB03F2654B1B68DB
:105CC0009B691A443868BB6A0344084611461A4661
:105CD000FFF73EF85F4B1B689B68F96A3A6B8A1ABC
:105CE00001325C490968096901FB02F1FA690A4459
:105CF00002FB03F3BA6A1344BB6241E0FA6A3B6BEE
:105D0000D31A0133534A1268126902FB03F13B6B49
:105D1000023B504A1268126902FB03F24D4B1B68AA
:105D20009B691A443868BB6A0344084611461A4600
:105D3000FFF70EF8FA6A3B6BD31A01337A6A02FB5B
